{
  "_format": "hh-sol-artifact-1",
  "contractName": "BoredApeYachtClubTest",
  "sourceName": "contracts/BAYC.sol",
  "abi": [
    {
      "inputs": [],
      "stateMutability": "nonpayable",
      "type": "constructor"
    },
    {
      "anonymous": false,
      "inputs": [
        {
          "indexed": true,
          "internalType": "address",
          "name": "owner",
          "type": "address"
        },
        {
          "indexed": true,
          "internalType": "address",
          "name": "approved",
          "type": "address"
        },
        {
          "indexed": true,
          "internalType": "uint256",
          "name": "tokenId",
          "type": "uint256"
        }
      ],
      "name": "Approval",
      "type": "event"
    },
    {
      "anonymous": false,
      "inputs": [
        {
          "indexed": true,
          "internalType": "address",
          "name": "owner",
          "type": "address"
        },
        {
          "indexed": true,
          "internalType": "address",
          "name": "operator",
          "type": "address"
        },
        {
          "indexed": false,
          "internalType": "bool",
          "name": "approved",
          "type": "bool"
        }
      ],
      "name": "ApprovalForAll",
      "type": "event"
    },
    {
      "anonymous": false,
      "inputs": [
        {
          "indexed": true,
          "internalType": "address",
          "name": "from",
          "type": "address"
        },
        {
          "indexed": true,
          "internalType": "address",
          "name": "to",
          "type": "address"
        },
        {
          "indexed": true,
          "internalType": "uint256",
          "name": "tokenId",
          "type": "uint256"
        }
      ],
      "name": "Transfer",
      "type": "event"
    },
    {
      "inputs": [
        {
          "internalType": "address",
          "name": "to",
          "type": "address"
        },
        {
          "internalType": "uint256",
          "name": "tokenId",
          "type": "uint256"
        }
      ],
      "name": "approve",
      "outputs": [],
      "stateMutability": "nonpayable",
      "type": "function"
    },
    {
      "inputs": [
        {
          "internalType": "address",
          "name": "owner",
          "type": "address"
        }
      ],
      "name": "balanceOf",
      "outputs": [
        {
          "internalType": "uint256",
          "name": "",
          "type": "uint256"
        }
      ],
      "stateMutability": "view",
      "type": "function"
    },
    {
      "inputs": [
        {
          "internalType": "uint256",
          "name": "tokenId",
          "type": "uint256"
        }
      ],
      "name": "getApproved",
      "outputs": [
        {
          "internalType": "address",
          "name": "",
          "type": "address"
        }
      ],
      "stateMutability": "view",
      "type": "function"
    },
    {
      "inputs": [
        {
          "internalType": "address",
          "name": "owner",
          "type": "address"
        },
        {
          "internalType": "address",
          "name": "operator",
          "type": "address"
        }
      ],
      "name": "isApprovedForAll",
      "outputs": [
        {
          "internalType": "bool",
          "name": "",
          "type": "bool"
        }
      ],
      "stateMutability": "view",
      "type": "function"
    },
    {
      "inputs": [],
      "name": "name",
      "outputs": [
        {
          "internalType": "string",
          "name": "",
          "type": "string"
        }
      ],
      "stateMutability": "view",
      "type": "function"
    },
    {
      "inputs": [
        {
          "internalType": "uint256",
          "name": "tokenId",
          "type": "uint256"
        }
      ],
      "name": "ownerOf",
      "outputs": [
        {
          "internalType": "address",
          "name": "",
          "type": "address"
        }
      ],
      "stateMutability": "view",
      "type": "function"
    },
    {
      "inputs": [
        {
          "internalType": "address",
          "name": "to",
          "type": "address"
        }
      ],
      "name": "safeMint",
      "outputs": [],
      "stateMutability": "nonpayable",
      "type": "function"
    },
    {
      "inputs": [
        {
          "internalType": "address",
          "name": "from",
          "type": "address"
        },
        {
          "internalType": "address",
          "name": "to",
          "type": "address"
        },
        {
          "internalType": "uint256",
          "name": "tokenId",
          "type": "uint256"
        }
      ],
      "name": "safeTransferFrom",
      "outputs": [],
      "stateMutability": "nonpayable",
      "type": "function"
    },
    {
      "inputs": [
        {
          "internalType": "address",
          "name": "from",
          "type": "address"
        },
        {
          "internalType": "address",
          "name": "to",
          "type": "address"
        },
        {
          "internalType": "uint256",
          "name": "tokenId",
          "type": "uint256"
        },
        {
          "internalType": "bytes",
          "name": "data",
          "type": "bytes"
        }
      ],
      "name": "safeTransferFrom",
      "outputs": [],
      "stateMutability": "nonpayable",
      "type": "function"
    },
    {
      "inputs": [
        {
          "internalType": "address",
          "name": "operator",
          "type": "address"
        },
        {
          "internalType": "bool",
          "name": "approved",
          "type": "bool"
        }
      ],
      "name": "setApprovalForAll",
      "outputs": [],
      "stateMutability": "nonpayable",
      "type": "function"
    },
    {
      "inputs": [
        {
          "internalType": "bytes4",
          "name": "interfaceId",
          "type": "bytes4"
        }
      ],
      "name": "supportsInterface",
      "outputs": [
        {
          "internalType": "bool",
          "name": "",
          "type": "bool"
        }
      ],
      "stateMutability": "view",
      "type": "function"
    },
    {
      "inputs": [],
      "name": "symbol",
      "outputs": [
        {
          "internalType": "string",
          "name": "",
          "type": "string"
        }
      ],
      "stateMutability": "view",
      "type": "function"
    },
    {
      "inputs": [
        {
          "internalType": "uint256",
          "name": "tokenId",
          "type": "uint256"
        }
      ],
      "name": "tokenURI",
      "outputs": [
        {
          "internalType": "string",
          "name": "",
          "type": "string"
        }
      ],
      "stateMutability": "view",
      "type": "function"
    },
    {
      "inputs": [
        {
          "internalType": "address",
          "name": "from",
          "type": "address"
        },
        {
          "internalType": "address",
          "name": "to",
          "type": "address"
        },
        {
          "internalType": "uint256",
          "name": "tokenId",
          "type": "uint256"
        }
      ],
      "name": "transferFrom",
      "outputs": [],
      "stateMutability": "nonpayable",
      "type": "function"
    }
  ],
  "bytecode": "0x60e06040526036608081815290620014ba60a03980516200002991600791602090910190620000ac565b503480156200003757600080fd5b5060408051808201825260118152702137b932b220b832acb0b1b43a21b63ab160791b6020808301918252835180850190945260048452634241594360e01b9084015281519192916200008d91600091620000ac565b508051620000a3906001906020840190620000ac565b5050506200018e565b828054620000ba9062000152565b90600052602060002090601f016020900481019282620000de576000855562000129565b82601f10620000f957805160ff191683800117855562000129565b8280016001018555821562000129579182015b82811115620001295782518255916020019190600101906200010c565b50620001379291506200013b565b5090565b5b808211156200013757600081556001016200013c565b600181811c908216806200016757607f821691505b6020821081036200018857634e487b7160e01b600052602260045260246000fd5b50919050565b61131c806200019e6000396000f3fe608060405234801561001057600080fd5b50600436106100ea5760003560e01c80636352211e1161008c578063a22cb46511610066578063a22cb465146101e1578063b88d4fde146101f4578063c87b56dd14610207578063e985e9c51461021a57600080fd5b80636352211e146101a557806370a08231146101b857806395d89b41146101d957600080fd5b8063095ea7b3116100c8578063095ea7b31461015757806323b872dd1461016c57806340d097c31461017f57806342842e0e1461019257600080fd5b806301ffc9a7146100ef57806306fdde0314610117578063081812fc1461012c575b600080fd5b6101026100fd366004610e32565b610256565b60405190151581526020015b60405180910390f35b61011f6102a8565b60405161010e9190610ea7565b61013f61013a366004610eba565b61033a565b6040516001600160a01b03909116815260200161010e565b61016a610165366004610eef565b610361565b005b61016a61017a366004610f19565b61047b565b61016a61018d366004610f55565b6104ac565b61016a6101a0366004610f19565b6104d5565b61013f6101b3366004610eba565b6104f0565b6101cb6101c6366004610f55565b610550565b60405190815260200161010e565b61011f6105d6565b61016a6101ef366004610f70565b6105e5565b61016a610202366004610fc2565b6105f4565b61011f610215366004610eba565b61062c565b61010261022836600461109e565b6001600160a01b03918216600090815260056020908152604080832093909416825291909152205460ff1690565b60006001600160e01b031982166380ac58cd60e01b148061028757506001600160e01b03198216635b5e139f60e01b145b806102a257506301ffc9a760e01b6001600160e01b03198316145b92915050565b6060600080546102b7906110d1565b80601f01602080910402602001604051908101604052809291908181526020018280546102e3906110d1565b80156103305780601f1061030557610100808354040283529160200191610330565b820191906000526020600020905b81548152906001019060200180831161031357829003601f168201915b5050505050905090565b600061034582610693565b506000908152600460205260409020546001600160a01b031690565b600061036c826104f0565b9050806001600160a01b0316836001600160a01b0316036103de5760405162461bcd60e51b815260206004820152602160248201527f4552433732313a20617070726f76616c20746f2063757272656e74206f776e656044820152603960f91b60648201526084015b60405180910390fd5b336001600160a01b03821614806103fa57506103fa8133610228565b61046c5760405162461bcd60e51b815260206004820152603e60248201527f4552433732313a20617070726f76652063616c6c6572206973206e6f7420746f60448201527f6b656e206f776e6572206e6f7220617070726f76656420666f7220616c6c000060648201526084016103d5565b61047683836106f2565b505050565b6104853382610760565b6104a15760405162461bcd60e51b81526004016103d59061110b565b6104768383836107df565b6001600660008282546104bf919061116f565b925050819055506104d28160065461097b565b50565b610476838383604051806020016040528060008152506105f4565b6000818152600260205260408120546001600160a01b0316806102a25760405162461bcd60e51b8152602060048201526018602482015277115490cdcc8c4e881a5b9d985b1a59081d1bdad95b88125160421b60448201526064016103d5565b60006001600160a01b0382166105ba5760405162461bcd60e51b815260206004820152602960248201527f4552433732313a2061646472657373207a65726f206973206e6f7420612076616044820152683634b21037bbb732b960b91b60648201526084016103d5565b506001600160a01b031660009081526003602052604090205490565b6060600180546102b7906110d1565b6105f0338383610995565b5050565b6105fe3383610760565b61061a5760405162461bcd60e51b81526004016103d59061110b565b61062684848484610a63565b50505050565b606061063782610693565b6000610641610a96565b90506000815111610661576040518060200160405280600081525061068c565b8061066b84610aa5565b60405160200161067c929190611187565b6040516020818303038152906040525b9392505050565b6000818152600260205260409020546001600160a01b03166104d25760405162461bcd60e51b8152602060048201526018602482015277115490cdcc8c4e881a5b9d985b1a59081d1bdad95b88125160421b60448201526064016103d5565b600081815260046020526040902080546001600160a01b0319166001600160a01b0384169081179091558190610727826104f0565b6001600160a01b03167f8c5be1e5ebec7d5bd14f71427d1e84f3dd0314c0f7b2291e5b200ac8c7c3b92560405160405180910390a45050565b60008061076c836104f0565b9050806001600160a01b0316846001600160a01b031614806107b357506001600160a01b0380821660009081526005602090815260408083209388168352929052205460ff165b806107d75750836001600160a01b03166107cc8461033a565b6001600160a01b0316145b949350505050565b826001600160a01b03166107f2826104f0565b6001600160a01b0316146108565760405162461bcd60e51b815260206004820152602560248201527f4552433732313a207472616e736665722066726f6d20696e636f72726563742060448201526437bbb732b960d91b60648201526084016103d5565b6001600160a01b0382166108b85760405162461bcd60e51b8152602060048201526024808201527f4552433732313a207472616e7366657220746f20746865207a65726f206164646044820152637265737360e01b60648201526084016103d5565b6108c36000826106f2565b6001600160a01b03831660009081526003602052604081208054600192906108ec9084906111b6565b90915550506001600160a01b038216600090815260036020526040812080546001929061091a90849061116f565b909155505060008181526002602052604080822080546001600160a01b0319166001600160a01b0386811691821790925591518493918716917fddf252ad1be2c89b69c2b068fc378daa952ba7f163c4a11628f55a4df523b3ef91a4505050565b6105f0828260405180602001604052806000815250610ba6565b816001600160a01b0316836001600160a01b0316036109f65760405162461bcd60e51b815260206004820152601960248201527f4552433732313a20617070726f766520746f2063616c6c65720000000000000060448201526064016103d5565b6001600160a01b03838116600081815260056020908152604080832094871680845294825291829020805460ff191686151590811790915591519182527f17307eab39ab6107e8899845ad3d59bd9653f200f220920489ca2b5937696c31910160405180910390a3505050565b610a6e8484846107df565b610a7a84848484610bd9565b6106265760405162461bcd60e51b81526004016103d5906111cd565b6060600780546102b7906110d1565b606081600003610acc5750506040805180820190915260018152600360fc1b602082015290565b8160005b8115610af65780610ae08161121f565b9150610aef9050600a8361124e565b9150610ad0565b60008167ffffffffffffffff811115610b1157610b11610fac565b6040519080825280601f01601f191660200182016040528015610b3b576020820181803683370190505b5090505b84156107d757610b506001836111b6565b9150610b5d600a86611262565b610b6890603061116f565b60f81b818381518110610b7d57610b7d611276565b60200101906001600160f81b031916908160001a905350610b9f600a8661124e565b9450610b3f565b610bb08383610cda565b610bbd6000848484610bd9565b6104765760405162461bcd60e51b81526004016103d5906111cd565b60006001600160a01b0384163b15610ccf57604051630a85bd0160e11b81526001600160a01b0385169063150b7a0290610c1d90339089908890889060040161128c565b6020604051808303816000875af1925050508015610c58575060408051601f3d908101601f19168201909252610c55918101906112c9565b60015b610cb5573d808015610c86576040519150601f19603f3d011682016040523d82523d6000602084013e610c8b565b606091505b508051600003610cad5760405162461bcd60e51b81526004016103d5906111cd565b805181602001fd5b6001600160e01b031916630a85bd0160e11b1490506107d7565b506001949350505050565b6001600160a01b038216610d305760405162461bcd60e51b815260206004820181905260248201527f4552433732313a206d696e7420746f20746865207a65726f206164647265737360448201526064016103d5565b6000818152600260205260409020546001600160a01b031615610d955760405162461bcd60e51b815260206004820152601c60248201527f4552433732313a20746f6b656e20616c7265616479206d696e7465640000000060448201526064016103d5565b6001600160a01b0382166000908152600360205260408120805460019290610dbe90849061116f565b909155505060008181526002602052604080822080546001600160a01b0319166001600160a01b03861690811790915590518392907fddf252ad1be2c89b69c2b068fc378daa952ba7f163c4a11628f55a4df523b3ef908290a45050565b6001600160e01b0319811681146104d257600080fd5b600060208284031215610e4457600080fd5b813561068c81610e1c565b60005b83811015610e6a578181015183820152602001610e52565b838111156106265750506000910152565b60008151808452610e93816020860160208601610e4f565b601f01601f19169290920160200192915050565b60208152600061068c6020830184610e7b565b600060208284031215610ecc57600080fd5b5035919050565b80356001600160a01b0381168114610eea57600080fd5b919050565b60008060408385031215610f0257600080fd5b610f0b83610ed3565b946020939093013593505050565b600080600060608486031215610f2e57600080fd5b610f3784610ed3565b9250610f4560208501610ed3565b9150604084013590509250925092565b600060208284031215610f6757600080fd5b61068c82610ed3565b60008060408385031215610f8357600080fd5b610f8c83610ed3565b915060208301358015158114610fa157600080fd5b809150509250929050565b634e487b7160e01b600052604160045260246000fd5b60008060008060808587031215610fd857600080fd5b610fe185610ed3565b9350610fef60208601610ed3565b925060408501359150606085013567ffffffffffffffff8082111561101357600080fd5b818701915087601f83011261102757600080fd5b81358181111561103957611039610fac565b604051601f8201601f19908116603f0116810190838211818310171561106157611061610fac565b816040528281528a602084870101111561107a57600080fd5b82602086016020830137600060208483010152809550505050505092959194509250565b600080604083850312156110b157600080fd5b6110ba83610ed3565b91506110c860208401610ed3565b90509250929050565b600181811c908216806110e557607f821691505b60208210810361110557634e487b7160e01b600052602260045260246000fd5b50919050565b6020808252602e908201527f4552433732313a2063616c6c6572206973206e6f7420746f6b656e206f776e6560408201526d1c881b9bdc88185c1c1c9bdd995960921b606082015260800190565b634e487b7160e01b600052601160045260246000fd5b6000821982111561118257611182611159565b500190565b60008351611199818460208801610e4f565b8351908301906111ad818360208801610e4f565b01949350505050565b6000828210156111c8576111c8611159565b500390565b60208082526032908201527f4552433732313a207472616e7366657220746f206e6f6e20455243373231526560408201527131b2b4bb32b91034b6b83632b6b2b73a32b960711b606082015260800190565b60006001820161123157611231611159565b5060010190565b634e487b7160e01b600052601260045260246000fd5b60008261125d5761125d611238565b500490565b60008261127157611271611238565b500690565b634e487b7160e01b600052603260045260246000fd5b6001600160a01b03858116825284166020820152604081018390526080606082018190526000906112bf90830184610e7b565b9695505050505050565b6000602082840312156112db57600080fd5b815161068c81610e1c56fea2646970667358221220731a8471ba9e4e09049c17169909649c518cacfb4de6a0c9637081f18ba0f3c064736f6c634300080d0033697066733a2f2f516d65536a53696e4870506e6d586d73704d6a776958794e367a533445397a63636172694752336a7863615774712f",
  "linkReferences": {},
  "deployedLinkReferences": {}
}