{
  "_format": "hh-sol-artifact-1",
  "contractName": "Echo",
  "sourceName": "contracts/Echo.sol",
  "abi": [
    {
      "anonymous": false,
      "inputs": [
        {
          "indexed": false,
          "internalType": "string",
          "name": "_communicationKey",
          "type": "string"
        }
      ],
      "name": "IdentityEvent",
      "type": "event"
    },
    {
      "anonymous": false,
      "inputs": [
        {
          "indexed": true,
          "internalType": "address",
          "name": "_receiver",
          "type": "address"
        },
        {
          "indexed": false,
          "internalType": "string",
          "name": "_senderMessage",
          "type": "string"
        },
        {
          "indexed": false,
          "internalType": "string",
          "name": "_receiverMessage",
          "type": "string"
        }
      ],
      "name": "MessageEvent",
      "type": "event"
    },
    {
      "anonymous": false,
      "inputs": [
        {
          "indexed": false,
          "internalType": "address",
          "name": "_address",
          "type": "address"
        },
        {
          "indexed": false,
          "internalType": "uint256",
          "name": "_tokenId",
          "type": "uint256"
        },
        {
          "indexed": false,
          "internalType": "uint256",
          "name": "_price",
          "type": "uint256"
        },
        {
          "indexed": false,
          "internalType": "bytes",
          "name": "_signature",
          "type": "bytes"
        }
      ],
      "name": "NFTExchangeEvent",
      "type": "event"
    },
    {
      "inputs": [
        {
          "internalType": "string",
          "name": "_communicationKey",
          "type": "string"
        }
      ],
      "name": "logIdentity",
      "outputs": [],
      "stateMutability": "nonpayable",
      "type": "function"
    },
    {
      "inputs": [
        {
          "internalType": "address",
          "name": "_receiver",
          "type": "address"
        },
        {
          "internalType": "string",
          "name": "_senderMessage",
          "type": "string"
        },
        {
          "internalType": "string",
          "name": "_receiverMessage",
          "type": "string"
        }
      ],
      "name": "logMessage",
      "outputs": [],
      "stateMutability": "nonpayable",
      "type": "function"
    },
    {
      "inputs": [
        {
          "internalType": "address",
          "name": "_address",
          "type": "address"
        },
        {
          "internalType": "uint256",
          "name": "_tokenId",
          "type": "uint256"
        },
        {
          "internalType": "uint256",
          "name": "_price",
          "type": "uint256"
        },
        {
          "internalType": "bytes",
          "name": "_signature",
          "type": "bytes"
        }
      ],
      "name": "logNFTExchange",
      "outputs": [],
      "stateMutability": "nonpayable",
      "type": "function"
    }
  ],
  "bytecode": "0x608060405234801561001057600080fd5b50610482806100206000396000f3fe608060405234801561001057600080fd5b50600436106100415760003560e01c80634576a96c14610046578063a2253bad1461005b578063c35af8b81461006e575b600080fd5b610059610054366004610181565b610081565b005b61005961006936600461029f565b6100c4565b61005961007c3660046102e1565b610101565b7fc900903b99024ba10a761364b76d39e9acb658dc1ff4c0e128654974a91842a5848484846040516100b69493929190610362565b60405180910390a150505050565b7f5a30b285f3990619f15487664b7c41b4ccbde9dbfc009f6cfb7687801a600e8b82826040516100f59291906103fe565b60405180910390a15050565b846001600160a01b03167ff05771101b37a37e44258b848c26d53f403b61f001ed9174097e7f58f7c6d1b885858585604051610140949392919061041a565b60405180910390a25050505050565b80356001600160a01b038116811461016657600080fd5b919050565b634e487b7160e01b600052604160045260246000fd5b6000806000806080858703121561019757600080fd5b6101a08561014f565b93506020850135925060408501359150606085013567ffffffffffffffff808211156101cb57600080fd5b818701915087601f8301126101df57600080fd5b8135818111156101f1576101f161016b565b604051601f8201601f19908116603f011681019083821181831017156102195761021961016b565b816040528281528a602084870101111561023257600080fd5b82602086016020830137600060208483010152809550505050505092959194509250565b60008083601f84011261026857600080fd5b50813567ffffffffffffffff81111561028057600080fd5b60208301915083602082850101111561029857600080fd5b9250929050565b600080602083850312156102b257600080fd5b823567ffffffffffffffff8111156102c957600080fd5b6102d585828601610256565b90969095509350505050565b6000806000806000606086880312156102f957600080fd5b6103028661014f565b9450602086013567ffffffffffffffff8082111561031f57600080fd5b61032b89838a01610256565b9096509450604088013591508082111561034457600080fd5b5061035188828901610256565b969995985093965092949392505050565b60018060a01b038516815260006020858184015284604084015260806060840152835180608085015260005b818110156103aa5785810183015185820160a00152820161038e565b818111156103bc57600060a083870101525b50601f01601f19169290920160a0019695505050505050565b81835281816020850137506000828201602090810191909152601f909101601f19169091010190565b6020815260006104126020830184866103d5565b949350505050565b60408152600061042e6040830186886103d5565b82810360208401526104418185876103d5565b97965050505050505056fea26469706673582212206c7b6b73071041c242adcfd50cef89183d4a4ac7e0d00c0d7ac519cb4ba5f04c64736f6c634300080d0033",
  "linkReferences": {},
  "deployedLinkReferences": {}
}