{
  "_format": "hh-sol-artifact-1",
  "contractName": "Echo",
  "sourceName": "contracts/Echo.sol",
  "abi": [
    {
      "anonymous": false,
      "inputs": [
        {
          "indexed": false,
          "internalType": "string",
          "name": "_communicationKey",
          "type": "string"
        }
      ],
      "name": "IdentityEvent",
      "type": "event"
    },
    {
      "anonymous": false,
      "inputs": [
        {
          "indexed": true,
          "internalType": "address",
          "name": "_sender",
          "type": "address"
        },
        {
          "indexed": true,
          "internalType": "address",
          "name": "_receiver",
          "type": "address"
        },
        {
          "indexed": false,
          "internalType": "uint256",
          "name": "_messageType",
          "type": "uint256"
        },
        {
          "indexed": false,
          "internalType": "string",
          "name": "_senderMessage",
          "type": "string"
        },
        {
          "indexed": false,
          "internalType": "string",
          "name": "_receiverMessage",
          "type": "string"
        }
      ],
      "name": "MessageEvent",
      "type": "event"
    },
    {
      "inputs": [
        {
          "internalType": "string",
          "name": "_communicationKey",
          "type": "string"
        }
      ],
      "name": "logIdentity",
      "outputs": [],
      "stateMutability": "nonpayable",
      "type": "function"
    },
    {
      "inputs": [
        {
          "internalType": "uint256",
          "name": "_messageType",
          "type": "uint256"
        },
        {
          "internalType": "address",
          "name": "_receiver",
          "type": "address"
        },
        {
          "internalType": "string",
          "name": "_senderMessage",
          "type": "string"
        },
        {
          "internalType": "string",
          "name": "_receiverMessage",
          "type": "string"
        }
      ],
      "name": "logMessage",
      "outputs": [],
      "stateMutability": "nonpayable",
      "type": "function"
    }
  ],
  "bytecode": "0x608060405234801561001057600080fd5b506102d2806100206000396000f3fe608060405234801561001057600080fd5b50600436106100365760003560e01c80638c2683761461003b578063a2253bad14610050575b600080fd5b61004e610049366004610144565b610063565b005b61004e61005e3660046101dc565b6100be565b846001600160a01b0316336001600160a01b03167f08b40f53f25e9059df8acdefcb694be1327bdeb9801e85ef9608f1fc608e8a0588878787876040516100ae959493929190610247565b60405180910390a3505050505050565b7f5a30b285f3990619f15487664b7c41b4ccbde9dbfc009f6cfb7687801a600e8b82826040516100ef929190610280565b60405180910390a15050565b60008083601f84011261010d57600080fd5b50813567ffffffffffffffff81111561012557600080fd5b60208301915083602082850101111561013d57600080fd5b9250929050565b6000806000806000806080878903121561015d57600080fd5b8635955060208701356001600160a01b038116811461017b57600080fd5b9450604087013567ffffffffffffffff8082111561019857600080fd5b6101a48a838b016100fb565b909650945060608901359150808211156101bd57600080fd5b506101ca89828a016100fb565b979a9699509497509295939492505050565b600080602083850312156101ef57600080fd5b823567ffffffffffffffff81111561020657600080fd5b610212858286016100fb565b90969095509350505050565b81835281816020850137506000828201602090810191909152601f909101601f19169091010190565b85815260606020820152600061026160608301868861021e565b828103604084015261027481858761021e565b98975050505050505050565b60208152600061029460208301848661021e565b94935050505056fea2646970667358221220c9ae9b6ecc31b7fc3713b96c31089ffd5fc1a8f18f2e52f63a8a0e025c44881a64736f6c634300080d0033",
  "linkReferences": {},
  "deployedLinkReferences": {}
}