{
  "_format": "hh-sol-artifact-1",
  "contractName": "Echo",
  "sourceName": "contracts/Echo.sol",
  "abi": [
    {
      "anonymous": false,
      "inputs": [
        {
          "indexed": false,
          "internalType": "string",
          "name": "_communicationKey",
          "type": "string"
        }
      ],
      "name": "IdentityEvent",
      "type": "event"
    },
    {
      "anonymous": false,
      "inputs": [
        {
          "indexed": false,
          "internalType": "uint256",
          "name": "_messageType",
          "type": "uint256"
        },
        {
          "indexed": true,
          "internalType": "address",
          "name": "_receiver",
          "type": "address"
        },
        {
          "indexed": false,
          "internalType": "string",
          "name": "_senderMessage",
          "type": "string"
        },
        {
          "indexed": false,
          "internalType": "string",
          "name": "_receiverMessage",
          "type": "string"
        }
      ],
      "name": "MessageEvent",
      "type": "event"
    },
    {
      "inputs": [
        {
          "internalType": "string",
          "name": "_communicationKey",
          "type": "string"
        }
      ],
      "name": "logIdentity",
      "outputs": [],
      "stateMutability": "nonpayable",
      "type": "function"
    },
    {
      "inputs": [
        {
          "internalType": "uint256",
          "name": "_messageType",
          "type": "uint256"
        },
        {
          "internalType": "address",
          "name": "_receiver",
          "type": "address"
        },
        {
          "internalType": "string",
          "name": "_senderMessage",
          "type": "string"
        },
        {
          "internalType": "string",
          "name": "_receiverMessage",
          "type": "string"
        }
      ],
      "name": "logMessage",
      "outputs": [],
      "stateMutability": "nonpayable",
      "type": "function"
    }
  ],
  "bytecode": "0x608060405234801561001057600080fd5b506102c8806100206000396000f3fe608060405234801561001057600080fd5b50600436106100365760003560e01c80638c2683761461003b578063a2253bad14610050575b600080fd5b61004e61004936600461013a565b610063565b005b61004e61005e3660046101d2565b6100b4565b846001600160a01b03167f548eda6c65f4bd05085e450712b22cfb19c58816b453f69294a94e78db9ab32b87868686866040516100a495949392919061023d565b60405180910390a2505050505050565b7f5a30b285f3990619f15487664b7c41b4ccbde9dbfc009f6cfb7687801a600e8b82826040516100e5929190610276565b60405180910390a15050565b60008083601f84011261010357600080fd5b50813567ffffffffffffffff81111561011b57600080fd5b60208301915083602082850101111561013357600080fd5b9250929050565b6000806000806000806080878903121561015357600080fd5b8635955060208701356001600160a01b038116811461017157600080fd5b9450604087013567ffffffffffffffff8082111561018e57600080fd5b61019a8a838b016100f1565b909650945060608901359150808211156101b357600080fd5b506101c089828a016100f1565b979a9699509497509295939492505050565b600080602083850312156101e557600080fd5b823567ffffffffffffffff8111156101fc57600080fd5b610208858286016100f1565b90969095509350505050565b81835281816020850137506000828201602090810191909152601f909101601f19169091010190565b858152606060208201526000610257606083018688610214565b828103604084015261026a818587610214565b98975050505050505050565b60208152600061028a602083018486610214565b94935050505056fea2646970667358221220a7500d5b3c262a134030438dec233133fc255f0e48c6fec74e8be0f8471b349464736f6c634300080d0033",
  "linkReferences": {},
  "deployedLinkReferences": {}
}