{
  "_format": "hh-sol-artifact-1",
  "contractName": "ProfilePicture",
  "sourceName": "contracts/ProfilePicture.sol",
  "abi": [
    {
      "inputs": [
        {
          "internalType": "address",
          "name": "user_",
          "type": "address"
        }
      ],
      "name": "getProfilePicture",
      "outputs": [
        {
          "internalType": "string",
          "name": "",
          "type": "string"
        }
      ],
      "stateMutability": "view",
      "type": "function"
    },
    {
      "inputs": [
        {
          "internalType": "string",
          "name": "pfpPointer_",
          "type": "string"
        }
      ],
      "name": "setProfilePicture",
      "outputs": [],
      "stateMutability": "nonpayable",
      "type": "function"
    }
  ],
  "bytecode": "0x608060405234801561001057600080fd5b5061039b806100206000396000f3fe608060405234801561001057600080fd5b50600436106100355760003560e01c8062d88ee11461003a5780636f51d8cf1461004f575b600080fd5b61004d6100483660046101f5565b610078565b005b61006261005d3660046102a6565b61009a565b60405161006f91906102d6565b60405180910390f35b33600090815260208181526040909120825161009692840190610146565b5050565b6001600160a01b03811660009081526020819052604090208054606091906100c19061032b565b80601f01602080910402602001604051908101604052809291908181526020018280546100ed9061032b565b801561013a5780601f1061010f5761010080835404028352916020019161013a565b820191906000526020600020905b81548152906001019060200180831161011d57829003601f168201915b50505050509050919050565b8280546101529061032b565b90600052602060002090601f01602090048101928261017457600085556101ba565b82601f1061018d57805160ff19168380011785556101ba565b828001600101855582156101ba579182015b828111156101ba57825182559160200191906001019061019f565b506101c69291506101ca565b5090565b5b808211156101c657600081556001016101cb565b634e487b7160e01b600052604160045260246000fd5b60006020828403121561020757600080fd5b813567ffffffffffffffff8082111561021f57600080fd5b818401915084601f83011261023357600080fd5b813581811115610245576102456101df565b604051601f8201601f19908116603f0116810190838211818310171561026d5761026d6101df565b8160405282815287602084870101111561028657600080fd5b826020860160208301376000928101602001929092525095945050505050565b6000602082840312156102b857600080fd5b81356001600160a01b03811681146102cf57600080fd5b9392505050565b600060208083528351808285015260005b81811015610303578581018301518582016040015282016102e7565b81811115610315576000604083870101525b50601f01601f1916929092016040019392505050565b600181811c9082168061033f57607f821691505b60208210810361035f57634e487b7160e01b600052602260045260246000fd5b5091905056fea2646970667358221220a012973dcaa370ca17a56244ab0a1d08ec1762dfc21c8c040b0dce04d6579bca64736f6c634300080d0033",
  "linkReferences": {},
  "deployedLinkReferences": {}
}