{
  "_format": "hh-sol-artifact-1",
  "contractName": "RequestNFT",
  "sourceName": "contracts/RequestNFT.sol",
  "abi": [
    {
      "anonymous": false,
      "inputs": [
        {
          "indexed": true,
          "internalType": "address",
          "name": "_buyer",
          "type": "address"
        },
        {
          "indexed": true,
          "internalType": "address",
          "name": "_seller",
          "type": "address"
        },
        {
          "components": [
            {
              "internalType": "uint256",
              "name": "tokenAmount",
              "type": "uint256"
            },
            {
              "internalType": "uint256",
              "name": "tokenId",
              "type": "uint256"
            },
            {
              "internalType": "uint256",
              "name": "timeExpiry",
              "type": "uint256"
            },
            {
              "internalType": "address",
              "name": "buyer",
              "type": "address"
            },
            {
              "internalType": "address",
              "name": "seller",
              "type": "address"
            },
            {
              "internalType": "address",
              "name": "tokenAddress",
              "type": "address"
            },
            {
              "internalType": "address",
              "name": "NFTAddress",
              "type": "address"
            }
          ],
          "indexed": false,
          "internalType": "struct RequestNFT.Offer",
          "name": "_offer",
          "type": "tuple"
        }
      ],
      "name": "exchangeEvent",
      "type": "event"
    },
    {
      "inputs": [],
      "name": "NAME",
      "outputs": [
        {
          "internalType": "bytes",
          "name": "",
          "type": "bytes"
        }
      ],
      "stateMutability": "view",
      "type": "function"
    },
    {
      "inputs": [
        {
          "components": [
            {
              "internalType": "uint256",
              "name": "tokenAmount",
              "type": "uint256"
            },
            {
              "internalType": "uint256",
              "name": "tokenId",
              "type": "uint256"
            },
            {
              "internalType": "uint256",
              "name": "timeExpiry",
              "type": "uint256"
            },
            {
              "internalType": "address",
              "name": "buyer",
              "type": "address"
            },
            {
              "internalType": "address",
              "name": "seller",
              "type": "address"
            },
            {
              "internalType": "address",
              "name": "tokenAddress",
              "type": "address"
            },
            {
              "internalType": "address",
              "name": "NFTAddress",
              "type": "address"
            }
          ],
          "internalType": "struct RequestNFT.Offer",
          "name": "offer",
          "type": "tuple"
        },
        {
          "internalType": "uint8",
          "name": "v",
          "type": "uint8"
        },
        {
          "internalType": "bytes32",
          "name": "r",
          "type": "bytes32"
        },
        {
          "internalType": "bytes32",
          "name": "s",
          "type": "bytes32"
        }
      ],
      "name": "exchange",
      "outputs": [],
      "stateMutability": "nonpayable",
      "type": "function"
    },
    {
      "inputs": [
        {
          "internalType": "address",
          "name": "",
          "type": "address"
        },
        {
          "internalType": "address",
          "name": "",
          "type": "address"
        },
        {
          "internalType": "uint256",
          "name": "",
          "type": "uint256"
        },
        {
          "internalType": "bytes",
          "name": "",
          "type": "bytes"
        }
      ],
      "name": "onERC721Received",
      "outputs": [
        {
          "internalType": "bytes4",
          "name": "",
          "type": "bytes4"
        }
      ],
      "stateMutability": "pure",
      "type": "function"
    }
  ],
  "bytecode": "0x608060405234801561001057600080fd5b50610c2c806100206000396000f3fe608060405234801561001057600080fd5b50600436106100415760003560e01c8063150b7a0214610046578063a3f4df7e1461009c578063afd1eb94146100d2575b600080fd5b61007e61005436600461098c565b7f150b7a023d4804d13e8c85fb27262cb750cf6ba9f9dd3bb30d90f482ceeb4b1f95945050505050565b6040516001600160e01b031990911681526020015b60405180910390f35b6100c56040518060400160405280600a81526020016914995c5d595cdd13919560b21b81525081565b6040516100939190610a57565b6100e56100e0366004610a8a565b6100e7565b005b6100f760a0850160808601610adf565b6001600160a01b0316336001600160a01b0316146101795760405162461bcd60e51b815260206004820152603460248201527f526571756573744e46543a65786368616e67653a2063616c6c6572206d757374604482015273103132903a34329037b33332b91039b2b63632b960611b60648201526084015b60405180910390fd5b83604001354211156101dc5760405162461bcd60e51b815260206004820152602660248201527f526571756573744e46543a65786368616e67653a206f666665722068617320656044820152651e1c1a5c995960d21b6064820152608401610170565b83356101ee60c0860160a08701610adf565b6001600160a01b03166370a0823161020c6080880160608901610adf565b6040516001600160e01b031960e084901b1681526001600160a01b039091166004820152602401602060405180830381865afa158015610250573d6000803e3d6000fd5b505050506040513d601f19601f820116820180604052508101906102749190610b01565b10156102e85760405162461bcd60e51b815260206004820152603f60248201527f526571756573743a4e46543a65786368616e67653a2062616c616e6365206f6660448201527f206275796572206973206c657373207468616e20746f6b656e416d6f756e74006064820152608401610170565b604080518082018252600a81526914995c5d595cdd13919560b21b60209182015281517f8cad95687ba82c2ce50e74f7b754645e5117c3a5bec8151c0726d5857980a866918101919091527f548810ca8befd99ed10ffb37622879fcfd17595520702334c7cb52be140d88a99181019190915246606082015230608082015260009060a00160408051601f19818403018152918152815160209283012092506000917f3b3c50624d18558d0a3c3e0d5dfa135b8465280d63d8e33c9d32be0847267e2791883591890135908901356103c660808b0160608c01610adf565b6103d660a08c0160808d01610adf565b6103e660c08d0160a08e01610adf565b6103f660e08e0160c08f01610adf565b604080516020810199909952880196909652606087019490945260808601929092526001600160a01b0390811660a086015290811660c085015290811660e084015216610100820152610120016040516020818303038152906040528051906020012090506000828260405160200161048692919061190160f01b81526002810192909252602282015260420190565b60408051601f198184030181528282528051602091820120600080855291840180845281905260ff8a169284019290925260608301889052608083018790529092509060019060a0016020604051602081039080840390855afa1580156104f1573d6000803e3d6000fd5b5050604051601f1901519150506001600160a01b0381166105635760405162461bcd60e51b815260206004820152602660248201527f526571756573744e46543a65786368616e67653a207369676e657220697320696044820152651b9d985b1a5960d21b6064820152608401610170565b61058e61057660c08a0160a08b01610adf565b61058660808b0160608c01610adf565b308b3561069f565b6105a96105a160c08a0160a08b01610adf565b338a3561080e565b6105b960e0890160c08a01610adf565b6001600160a01b03166342842e0e336105d860808c0160608d01610adf565b6040516001600160e01b031960e085901b1681526001600160a01b0392831660048201529116602482015260208b01356044820152606401600060405180830381600087803b15801561062a57600080fd5b505af115801561063e573d6000803e3d6000fd5b5033925061065591505060808a0160608b01610adf565b6001600160a01b03167f5eefb570d82210a986c638c23bc31de70c7d2f6b91c27ed64b3f4882c7e0d31d8a60405161068d9190610b1a565b60405180910390a35050505050505050565b600080856001600160a01b0316604051806060016040528060258152602001610bd26025913980516020909101206040516001600160a01b038089166024830152871660448201526064810186905260840160408051601f198184030181529181526020820180516001600160e01b03166001600160e01b031990941693909317909252905161072f9190610b93565b6000604051808303816000865af19150503d806000811461076c576040519150601f19603f3d011682016040523d82523d6000602084013e610771565b606091505b509150915081801561079b57508051158061079b57508080602001905181019061079b9190610baf565b6108065760405162461bcd60e51b815260206004820152603660248201527f53656e6443727970746f3a5f736166655472616e7366657246726f6d3a205f73604482015275185999551c985b9cd9995c919c9bdb4819985a5b195960521b6064820152608401610170565b505050505050565b604080518082018252601981527f7472616e7366657228616464726573732c75696e74323536290000000000000060209182015281516001600160a01b0385811660248301526044808301869052845180840390910181526064909201845291810180516001600160e01b031663a9059cbb60e01b1790529151600092839287169161089a9190610b93565b6000604051808303816000865af19150503d80600081146108d7576040519150601f19603f3d011682016040523d82523d6000602084013e6108dc565b606091505b50915091508180156109065750805115806109065750808060200190518101906109069190610baf565b6109695760405162461bcd60e51b815260206004820152602e60248201527f53656e6443727970746f3a5f736166655472616e736665723a205f736166655460448201526d1c985b9cd9995c8819985a5b195960921b6064820152608401610170565b5050505050565b80356001600160a01b038116811461098757600080fd5b919050565b6000806000806000608086880312156109a457600080fd5b6109ad86610970565b94506109bb60208701610970565b935060408601359250606086013567ffffffffffffffff808211156109df57600080fd5b818801915088601f8301126109f357600080fd5b813581811115610a0257600080fd5b896020828501011115610a1457600080fd5b9699959850939650602001949392505050565b60005b83811015610a42578181015183820152602001610a2a565b83811115610a51576000848401525b50505050565b6020815260008251806020840152610a76816040850160208701610a27565b601f01601f19169190910160400192915050565b600080600080848603610140811215610aa257600080fd5b60e0811215610ab057600080fd5b5084935060e085013560ff81168114610ac857600080fd5b939693955050505061010082013591610120013590565b600060208284031215610af157600080fd5b610afa82610970565b9392505050565b600060208284031215610b1357600080fd5b5051919050565b81358152602080830135908201526040808301359082015260e08101610b4260608401610970565b6001600160a01b03818116606085015280610b5f60808701610970565b16608085015280610b7260a08701610970565b1660a085015280610b8560c08701610970565b1660c0850152505092915050565b60008251610ba5818460208701610a27565b9190910192915050565b600060208284031215610bc157600080fd5b81518015158114610afa57600080fdfe7472616e7366657246726f6d28616464726573732c616464726573732c75696e7432353629a2646970667358221220bd3e8bc31b808ddfb12fa77a08a64cb16fe9f1f1073290d0166a3422c0aa9f7f64736f6c634300080d0033",
  "linkReferences": {},
  "deployedLinkReferences": {}
}