{
  "_format": "hh-sol-artifact-1",
  "contractName": "RequestNFT",
  "sourceName": "contracts/RequestNFT.sol",
  "abi": [
    {
      "anonymous": false,
      "inputs": [
        {
          "indexed": true,
          "internalType": "address",
          "name": "_buyer",
          "type": "address"
        },
        {
          "indexed": true,
          "internalType": "address",
          "name": "_seller",
          "type": "address"
        },
        {
          "components": [
            {
              "internalType": "uint256",
              "name": "tokenAmount",
              "type": "uint256"
            },
            {
              "internalType": "uint256",
              "name": "tokenId",
              "type": "uint256"
            },
            {
              "internalType": "uint256",
              "name": "timeExpiry",
              "type": "uint256"
            },
            {
              "internalType": "address",
              "name": "buyer",
              "type": "address"
            },
            {
              "internalType": "address",
              "name": "seller",
              "type": "address"
            },
            {
              "internalType": "address",
              "name": "tokenAddress",
              "type": "address"
            },
            {
              "internalType": "address",
              "name": "NFTAddress",
              "type": "address"
            }
          ],
          "indexed": false,
          "internalType": "struct RequestNFT.Offer",
          "name": "_offer",
          "type": "tuple"
        }
      ],
      "name": "exchangeEvent",
      "type": "event"
    },
    {
      "inputs": [],
      "name": "NAME",
      "outputs": [
        {
          "internalType": "bytes",
          "name": "",
          "type": "bytes"
        }
      ],
      "stateMutability": "view",
      "type": "function"
    },
    {
      "inputs": [
        {
          "components": [
            {
              "internalType": "uint256",
              "name": "tokenAmount",
              "type": "uint256"
            },
            {
              "internalType": "uint256",
              "name": "tokenId",
              "type": "uint256"
            },
            {
              "internalType": "uint256",
              "name": "timeExpiry",
              "type": "uint256"
            },
            {
              "internalType": "address",
              "name": "buyer",
              "type": "address"
            },
            {
              "internalType": "address",
              "name": "seller",
              "type": "address"
            },
            {
              "internalType": "address",
              "name": "tokenAddress",
              "type": "address"
            },
            {
              "internalType": "address",
              "name": "NFTAddress",
              "type": "address"
            }
          ],
          "internalType": "struct RequestNFT.Offer",
          "name": "offer",
          "type": "tuple"
        }
      ],
      "name": "_offerId",
      "outputs": [
        {
          "internalType": "uint256",
          "name": "",
          "type": "uint256"
        }
      ],
      "stateMutability": "pure",
      "type": "function"
    },
    {
      "inputs": [
        {
          "components": [
            {
              "internalType": "uint256",
              "name": "tokenAmount",
              "type": "uint256"
            },
            {
              "internalType": "uint256",
              "name": "tokenId",
              "type": "uint256"
            },
            {
              "internalType": "uint256",
              "name": "timeExpiry",
              "type": "uint256"
            },
            {
              "internalType": "address",
              "name": "buyer",
              "type": "address"
            },
            {
              "internalType": "address",
              "name": "seller",
              "type": "address"
            },
            {
              "internalType": "address",
              "name": "tokenAddress",
              "type": "address"
            },
            {
              "internalType": "address",
              "name": "NFTAddress",
              "type": "address"
            }
          ],
          "internalType": "struct RequestNFT.Offer",
          "name": "offer",
          "type": "tuple"
        },
        {
          "internalType": "uint8",
          "name": "v",
          "type": "uint8"
        },
        {
          "internalType": "bytes32",
          "name": "r",
          "type": "bytes32"
        },
        {
          "internalType": "bytes32",
          "name": "s",
          "type": "bytes32"
        }
      ],
      "name": "cancelOffer",
      "outputs": [],
      "stateMutability": "nonpayable",
      "type": "function"
    },
    {
      "inputs": [
        {
          "components": [
            {
              "internalType": "uint256",
              "name": "tokenAmount",
              "type": "uint256"
            },
            {
              "internalType": "uint256",
              "name": "tokenId",
              "type": "uint256"
            },
            {
              "internalType": "uint256",
              "name": "timeExpiry",
              "type": "uint256"
            },
            {
              "internalType": "address",
              "name": "buyer",
              "type": "address"
            },
            {
              "internalType": "address",
              "name": "seller",
              "type": "address"
            },
            {
              "internalType": "address",
              "name": "tokenAddress",
              "type": "address"
            },
            {
              "internalType": "address",
              "name": "NFTAddress",
              "type": "address"
            }
          ],
          "internalType": "struct RequestNFT.Offer",
          "name": "offer",
          "type": "tuple"
        },
        {
          "internalType": "uint8",
          "name": "v",
          "type": "uint8"
        },
        {
          "internalType": "bytes32",
          "name": "r",
          "type": "bytes32"
        },
        {
          "internalType": "bytes32",
          "name": "s",
          "type": "bytes32"
        }
      ],
      "name": "exchange",
      "outputs": [],
      "stateMutability": "nonpayable",
      "type": "function"
    },
    {
      "inputs": [
        {
          "components": [
            {
              "internalType": "uint256",
              "name": "tokenAmount",
              "type": "uint256"
            },
            {
              "internalType": "uint256",
              "name": "tokenId",
              "type": "uint256"
            },
            {
              "internalType": "uint256",
              "name": "timeExpiry",
              "type": "uint256"
            },
            {
              "internalType": "address",
              "name": "buyer",
              "type": "address"
            },
            {
              "internalType": "address",
              "name": "seller",
              "type": "address"
            },
            {
              "internalType": "address",
              "name": "tokenAddress",
              "type": "address"
            },
            {
              "internalType": "address",
              "name": "NFTAddress",
              "type": "address"
            }
          ],
          "internalType": "struct RequestNFT.Offer",
          "name": "offer",
          "type": "tuple"
        }
      ],
      "name": "getOfferStatus",
      "outputs": [
        {
          "internalType": "enum RequestNFT.OfferState",
          "name": "",
          "type": "uint8"
        }
      ],
      "stateMutability": "view",
      "type": "function"
    },
    {
      "inputs": [
        {
          "internalType": "address",
          "name": "",
          "type": "address"
        },
        {
          "internalType": "address",
          "name": "",
          "type": "address"
        },
        {
          "internalType": "uint256",
          "name": "",
          "type": "uint256"
        },
        {
          "internalType": "bytes",
          "name": "",
          "type": "bytes"
        }
      ],
      "name": "onERC721Received",
      "outputs": [
        {
          "internalType": "bytes4",
          "name": "",
          "type": "bytes4"
        }
      ],
      "stateMutability": "pure",
      "type": "function"
    }
  ],
  "bytecode": "0x608060405234801561001057600080fd5b50610f91806100206000396000f3fe608060405234801561001057600080fd5b50600436106100625760003560e01c806304fc51db14610067578063150b7a021461008d57806339e5e800146100de578063a3f4df7e146100f3578063afd1eb9414610129578063c25bb7ff1461013c575b600080fd5b61007a610075366004610c3c565b61015c565b6040519081526020015b60405180910390f35b6100c561009b366004610c7b565b7f150b7a023d4804d13e8c85fb27262cb750cf6ba9f9dd3bb30d90f482ceeb4b1f95945050505050565b6040516001600160e01b03199091168152602001610084565b6100f16100ec366004610d16565b61020b565b005b61011c6040518060400160405280600a81526020016914995c5d595cdd13919560b21b81525081565b6040516100849190610d94565b6100f1610137366004610d16565b6102d8565b61014f61014a366004610c3c565b61076d565b6040516100849190610ddd565b600081356020830135604084013561017a6080860160608701610e05565b61018a60a0870160808801610e05565b61019a60c0880160a08901610e05565b6101aa60e0890160c08a01610e05565b60408051602081019890985287019590955260608601939093526001600160a01b039182166080860152811660a085015290811660c08401521660e08201526101000160408051601f19818403018152919052805160209091012092915050565b60006102168561015c565b9050600061022386610792565b6040805160008082526020820180845284905260ff89169282019290925260608101879052608081018690529192509060019060a0016020604051602081039080840390855afa15801561027b573d6000803e3d6000fd5b5050604051601f1901519150506001600160a01b0381166102b75760405162461bcd60e51b81526004016102ae90610e20565b60405180910390fd5b50506000908152602081905260409020805460ff1916600217905550505050565b60006102e38561015c565b905060006102f086610792565b905061030260a0870160808801610e05565b6001600160a01b0316336001600160a01b03161461037f5760405162461bcd60e51b815260206004820152603460248201527f526571756573744e46543a65786368616e67653a2063616c6c6572206d757374604482015273103132903a34329037b33332b91039b2b63632b960611b60648201526084016102ae565b85604001354211156103e25760405162461bcd60e51b815260206004820152602660248201527f526571756573744e46543a65786368616e67653a206f666665722068617320656044820152651e1c1a5c995960d21b60648201526084016102ae565b85356103f460c0880160a08901610e05565b6001600160a01b03166370a0823161041260808a0160608b01610e05565b6040516001600160e01b031960e084901b1681526001600160a01b039091166004820152602401602060405180830381865afa158015610456573d6000803e3d6000fd5b505050506040513d601f19601f8201168201806040525081019061047a9190610e66565b10156104ee5760405162461bcd60e51b815260206004820152603f60248201527f526571756573743a4e46543a65786368616e67653a2062616c616e6365206f6660448201527f206275796572206973206c657373207468616e20746f6b656e416d6f756e740060648201526084016102ae565b60008281526020819052604081205460ff16600281111561051157610511610dc7565b146105775760405162461bcd60e51b815260206004820152603060248201527f526571756573743a4e46543a65786368616e67653a206f66666572206973206e60448201526f37903637b733b2b91030b1ba34bb329760811b60648201526084016102ae565b6040805160008082526020820180845284905260ff881692820192909252606081018690526080810185905260019060a0016020604051602081039080840390855afa1580156105cb573d6000803e3d6000fd5b5050604051601f19015191506105e990506080880160608901610e05565b6001600160a01b0316816001600160a01b0316146106195760405162461bcd60e51b81526004016102ae90610e20565b6000838152602081905260409020805460ff1916600117905561065d61064560c0890160a08a01610e05565b61065560808a0160608b01610e05565b308a35610953565b61067861067060c0890160a08a01610e05565b338935610ac2565b61068860e0880160c08901610e05565b6001600160a01b03166342842e0e336106a760808b0160608c01610e05565b6040516001600160e01b031960e085901b1681526001600160a01b0392831660048201529116602482015260208a01356044820152606401600060405180830381600087803b1580156106f957600080fd5b505af115801561070d573d6000803e3d6000fd5b503392506107249150506080890160608a01610e05565b6001600160a01b03167f5eefb570d82210a986c638c23bc31de70c7d2f6b91c27ed64b3f4882c7e0d31d8960405161075c9190610e7f565b60405180910390a350505050505050565b6000806107798361015c565b60009081526020819052604090205460ff169392505050565b604080518082018252600a81526914995c5d595cdd13919560b21b60209182015281517f8cad95687ba82c2ce50e74f7b754645e5117c3a5bec8151c0726d5857980a866918101919091527f548810ca8befd99ed10ffb37622879fcfd17595520702334c7cb52be140d88a991810191909152466060820152306080820152600090819060a00160408051601f19818403018152918152815160209283012092506000917f3b3c50624d18558d0a3c3e0d5dfa135b8465280d63d8e33c9d32be0847267e2791863591870135908701356108726080890160608a01610e05565b61088260a08a0160808b01610e05565b61089260c08b0160a08c01610e05565b6108a260e08c0160c08d01610e05565b604080516020810199909952880196909652606087019490945260808601929092526001600160a01b0390811660a086015290811660c085015290811660e084015216610100820152610120016040516020818303038152906040528051906020012090506000828260405160200161093292919061190160f01b81526002810192909252602282015260420190565b60408051601f19818403018152919052805160209091012095945050505050565b600080856001600160a01b0316604051806060016040528060258152602001610f376025913980516020909101206040516001600160a01b038089166024830152871660448201526064810186905260840160408051601f198184030181529181526020820180516001600160e01b03166001600160e01b03199094169390931790925290516109e39190610ef8565b6000604051808303816000865af19150503d8060008114610a20576040519150601f19603f3d011682016040523d82523d6000602084013e610a25565b606091505b5091509150818015610a4f575080511580610a4f575080806020019051810190610a4f9190610f14565b610aba5760405162461bcd60e51b815260206004820152603660248201527f53656e6443727970746f3a5f736166655472616e7366657246726f6d3a205f73604482015275185999551c985b9cd9995c919c9bdb4819985a5b195960521b60648201526084016102ae565b505050505050565b604080518082018252601981527f7472616e7366657228616464726573732c75696e74323536290000000000000060209182015281516001600160a01b0385811660248301526044808301869052845180840390910181526064909201845291810180516001600160e01b031663a9059cbb60e01b17905291516000928392871691610b4e9190610ef8565b6000604051808303816000865af19150503d8060008114610b8b576040519150601f19603f3d011682016040523d82523d6000602084013e610b90565b606091505b5091509150818015610bba575080511580610bba575080806020019051810190610bba9190610f14565b610c1d5760405162461bcd60e51b815260206004820152602e60248201527f53656e6443727970746f3a5f736166655472616e736665723a205f736166655460448201526d1c985b9cd9995c8819985a5b195960921b60648201526084016102ae565b5050505050565b600060e08284031215610c3657600080fd5b50919050565b600060e08284031215610c4e57600080fd5b610c588383610c24565b9392505050565b80356001600160a01b0381168114610c7657600080fd5b919050565b600080600080600060808688031215610c9357600080fd5b610c9c86610c5f565b9450610caa60208701610c5f565b935060408601359250606086013567ffffffffffffffff80821115610cce57600080fd5b818801915088601f830112610ce257600080fd5b813581811115610cf157600080fd5b896020828501011115610d0357600080fd5b9699959850939650602001949392505050565b6000806000806101408587031215610d2d57600080fd5b610d378686610c24565b935060e085013560ff81168114610d4d57600080fd5b939693955050505061010082013591610120013590565b60005b83811015610d7f578181015183820152602001610d67565b83811115610d8e576000848401525b50505050565b6020815260008251806020840152610db3816040850160208701610d64565b601f01601f19169190910160400192915050565b634e487b7160e01b600052602160045260246000fd5b6020810160038310610dff57634e487b7160e01b600052602160045260246000fd5b91905290565b600060208284031215610e1757600080fd5b610c5882610c5f565b60208082526026908201527f526571756573744e46543a65786368616e67653a207369676e657220697320696040820152651b9d985b1a5960d21b606082015260800190565b600060208284031215610e7857600080fd5b5051919050565b81358152602080830135908201526040808301359082015260e08101610ea760608401610c5f565b6001600160a01b03818116606085015280610ec460808701610c5f565b16608085015280610ed760a08701610c5f565b1660a085015280610eea60c08701610c5f565b1660c0850152505092915050565b60008251610f0a818460208701610d64565b9190910192915050565b600060208284031215610f2657600080fd5b81518015158114610c5857600080fdfe7472616e7366657246726f6d28616464726573732c616464726573732c75696e7432353629a2646970667358221220790975ab85545f543f95b6073b62c077686761cebe95f11be154f3a5467a202f64736f6c634300080d0033",
  "linkReferences": {},
  "deployedLinkReferences": {}
}