{
  "_format": "hh-sol-artifact-1",
  "contractName": "TestERC721Token",
  "sourceName": "contracts/TestERC721Token.sol",
  "abi": [
    {
      "inputs": [],
      "stateMutability": "nonpayable",
      "type": "constructor"
    },
    {
      "anonymous": false,
      "inputs": [
        {
          "indexed": true,
          "internalType": "address",
          "name": "owner",
          "type": "address"
        },
        {
          "indexed": true,
          "internalType": "address",
          "name": "approved",
          "type": "address"
        },
        {
          "indexed": true,
          "internalType": "uint256",
          "name": "tokenId",
          "type": "uint256"
        }
      ],
      "name": "Approval",
      "type": "event"
    },
    {
      "anonymous": false,
      "inputs": [
        {
          "indexed": true,
          "internalType": "address",
          "name": "owner",
          "type": "address"
        },
        {
          "indexed": true,
          "internalType": "address",
          "name": "operator",
          "type": "address"
        },
        {
          "indexed": false,
          "internalType": "bool",
          "name": "approved",
          "type": "bool"
        }
      ],
      "name": "ApprovalForAll",
      "type": "event"
    },
    {
      "anonymous": false,
      "inputs": [
        {
          "indexed": true,
          "internalType": "address",
          "name": "from",
          "type": "address"
        },
        {
          "indexed": true,
          "internalType": "address",
          "name": "to",
          "type": "address"
        },
        {
          "indexed": true,
          "internalType": "uint256",
          "name": "tokenId",
          "type": "uint256"
        }
      ],
      "name": "Transfer",
      "type": "event"
    },
    {
      "inputs": [
        {
          "internalType": "address",
          "name": "to",
          "type": "address"
        },
        {
          "internalType": "uint256",
          "name": "tokenId",
          "type": "uint256"
        }
      ],
      "name": "approve",
      "outputs": [],
      "stateMutability": "nonpayable",
      "type": "function"
    },
    {
      "inputs": [
        {
          "internalType": "address",
          "name": "owner",
          "type": "address"
        }
      ],
      "name": "balanceOf",
      "outputs": [
        {
          "internalType": "uint256",
          "name": "",
          "type": "uint256"
        }
      ],
      "stateMutability": "view",
      "type": "function"
    },
    {
      "inputs": [
        {
          "internalType": "uint256",
          "name": "tokenId",
          "type": "uint256"
        }
      ],
      "name": "getApproved",
      "outputs": [
        {
          "internalType": "address",
          "name": "",
          "type": "address"
        }
      ],
      "stateMutability": "view",
      "type": "function"
    },
    {
      "inputs": [
        {
          "internalType": "address",
          "name": "owner",
          "type": "address"
        },
        {
          "internalType": "address",
          "name": "operator",
          "type": "address"
        }
      ],
      "name": "isApprovedForAll",
      "outputs": [
        {
          "internalType": "bool",
          "name": "",
          "type": "bool"
        }
      ],
      "stateMutability": "view",
      "type": "function"
    },
    {
      "inputs": [],
      "name": "name",
      "outputs": [
        {
          "internalType": "string",
          "name": "",
          "type": "string"
        }
      ],
      "stateMutability": "view",
      "type": "function"
    },
    {
      "inputs": [
        {
          "internalType": "uint256",
          "name": "tokenId",
          "type": "uint256"
        }
      ],
      "name": "ownerOf",
      "outputs": [
        {
          "internalType": "address",
          "name": "",
          "type": "address"
        }
      ],
      "stateMutability": "view",
      "type": "function"
    },
    {
      "inputs": [
        {
          "internalType": "address",
          "name": "to",
          "type": "address"
        }
      ],
      "name": "safeMint",
      "outputs": [],
      "stateMutability": "nonpayable",
      "type": "function"
    },
    {
      "inputs": [
        {
          "internalType": "address",
          "name": "from",
          "type": "address"
        },
        {
          "internalType": "address",
          "name": "to",
          "type": "address"
        },
        {
          "internalType": "uint256",
          "name": "tokenId",
          "type": "uint256"
        }
      ],
      "name": "safeTransferFrom",
      "outputs": [],
      "stateMutability": "nonpayable",
      "type": "function"
    },
    {
      "inputs": [
        {
          "internalType": "address",
          "name": "from",
          "type": "address"
        },
        {
          "internalType": "address",
          "name": "to",
          "type": "address"
        },
        {
          "internalType": "uint256",
          "name": "tokenId",
          "type": "uint256"
        },
        {
          "internalType": "bytes",
          "name": "data",
          "type": "bytes"
        }
      ],
      "name": "safeTransferFrom",
      "outputs": [],
      "stateMutability": "nonpayable",
      "type": "function"
    },
    {
      "inputs": [
        {
          "internalType": "address",
          "name": "operator",
          "type": "address"
        },
        {
          "internalType": "bool",
          "name": "approved",
          "type": "bool"
        }
      ],
      "name": "setApprovalForAll",
      "outputs": [],
      "stateMutability": "nonpayable",
      "type": "function"
    },
    {
      "inputs": [
        {
          "internalType": "bytes4",
          "name": "interfaceId",
          "type": "bytes4"
        }
      ],
      "name": "supportsInterface",
      "outputs": [
        {
          "internalType": "bool",
          "name": "",
          "type": "bool"
        }
      ],
      "stateMutability": "view",
      "type": "function"
    },
    {
      "inputs": [],
      "name": "symbol",
      "outputs": [
        {
          "internalType": "string",
          "name": "",
          "type": "string"
        }
      ],
      "stateMutability": "view",
      "type": "function"
    },
    {
      "inputs": [
        {
          "internalType": "uint256",
          "name": "tokenId",
          "type": "uint256"
        }
      ],
      "name": "tokenURI",
      "outputs": [
        {
          "internalType": "string",
          "name": "",
          "type": "string"
        }
      ],
      "stateMutability": "view",
      "type": "function"
    },
    {
      "inputs": [
        {
          "internalType": "address",
          "name": "from",
          "type": "address"
        },
        {
          "internalType": "address",
          "name": "to",
          "type": "address"
        },
        {
          "internalType": "uint256",
          "name": "tokenId",
          "type": "uint256"
        }
      ],
      "name": "transferFrom",
      "outputs": [],
      "stateMutability": "nonpayable",
      "type": "function"
    }
  ],
  "bytecode": "0x60806040523480156200001157600080fd5b50604080518082018252600781526615195cdd13919560ca1b6020808301918252835180850190945260048452631513919560e21b9084015281519192916200005d916000916200007c565b508051620000739060019060208401906200007c565b5050506200015e565b8280546200008a9062000122565b90600052602060002090601f016020900481019282620000ae5760008555620000f9565b82601f10620000c957805160ff1916838001178555620000f9565b82800160010185558215620000f9579182015b82811115620000f9578251825591602001919060010190620000dc565b50620001079291506200010b565b5090565b5b808211156200010757600081556001016200010c565b600181811c908216806200013757607f821691505b6020821081036200015857634e487b7160e01b600052602260045260246000fd5b50919050565b61131a806200016e6000396000f3fe608060405234801561001057600080fd5b50600436106100ea5760003560e01c80636352211e1161008c578063a22cb46511610066578063a22cb465146101e1578063b88d4fde146101f4578063c87b56dd14610207578063e985e9c51461021a57600080fd5b80636352211e146101a557806370a08231146101b857806395d89b41146101d957600080fd5b8063095ea7b3116100c8578063095ea7b31461015757806323b872dd1461016c57806340d097c31461017f57806342842e0e1461019257600080fd5b806301ffc9a7146100ef57806306fdde0314610117578063081812fc1461012c575b600080fd5b6101026100fd366004610e30565b610256565b60405190151581526020015b60405180910390f35b61011f6102a8565b60405161010e9190610ea5565b61013f61013a366004610eb8565b61033a565b6040516001600160a01b03909116815260200161010e565b61016a610165366004610eed565b610361565b005b61016a61017a366004610f17565b61047b565b61016a61018d366004610f53565b6104ac565b61016a6101a0366004610f17565b6104d5565b61013f6101b3366004610eb8565b6104f0565b6101cb6101c6366004610f53565b610550565b60405190815260200161010e565b61011f6105d6565b61016a6101ef366004610f6e565b6105e5565b61016a610202366004610fc0565b6105f4565b61011f610215366004610eb8565b61062c565b61010261022836600461109c565b6001600160a01b03918216600090815260056020908152604080832093909416825291909152205460ff1690565b60006001600160e01b031982166380ac58cd60e01b148061028757506001600160e01b03198216635b5e139f60e01b145b806102a257506301ffc9a760e01b6001600160e01b03198316145b92915050565b6060600080546102b7906110cf565b80601f01602080910402602001604051908101604052809291908181526020018280546102e3906110cf565b80156103305780601f1061030557610100808354040283529160200191610330565b820191906000526020600020905b81548152906001019060200180831161031357829003601f168201915b5050505050905090565b6000610345826106a0565b506000908152600460205260409020546001600160a01b031690565b600061036c826104f0565b9050806001600160a01b0316836001600160a01b0316036103de5760405162461bcd60e51b815260206004820152602160248201527f4552433732313a20617070726f76616c20746f2063757272656e74206f776e656044820152603960f91b60648201526084015b60405180910390fd5b336001600160a01b03821614806103fa57506103fa8133610228565b61046c5760405162461bcd60e51b815260206004820152603e60248201527f4552433732313a20617070726f76652063616c6c6572206973206e6f7420746f60448201527f6b656e206f776e6572206e6f7220617070726f76656420666f7220616c6c000060648201526084016103d5565b61047683836106ff565b505050565b610485338261076d565b6104a15760405162461bcd60e51b81526004016103d590611109565b6104768383836107ec565b6001600660008282546104bf919061116d565b925050819055506104d281600654610988565b50565b610476838383604051806020016040528060008152506105f4565b6000818152600260205260408120546001600160a01b0316806102a25760405162461bcd60e51b8152602060048201526018602482015277115490cdcc8c4e881a5b9d985b1a59081d1bdad95b88125160421b60448201526064016103d5565b60006001600160a01b0382166105ba5760405162461bcd60e51b815260206004820152602960248201527f4552433732313a2061646472657373207a65726f206973206e6f7420612076616044820152683634b21037bbb732b960b91b60648201526084016103d5565b506001600160a01b031660009081526003602052604090205490565b6060600180546102b7906110cf565b6105f03383836109a2565b5050565b6105fe338361076d565b61061a5760405162461bcd60e51b81526004016103d590611109565b61062684848484610a70565b50505050565b6060610637826106a0565b600061064e60408051602081019091526000815290565b9050600081511161066e5760405180602001604052806000815250610699565b8061067884610aa3565b604051602001610689929190611185565b6040516020818303038152906040525b9392505050565b6000818152600260205260409020546001600160a01b03166104d25760405162461bcd60e51b8152602060048201526018602482015277115490cdcc8c4e881a5b9d985b1a59081d1bdad95b88125160421b60448201526064016103d5565b600081815260046020526040902080546001600160a01b0319166001600160a01b0384169081179091558190610734826104f0565b6001600160a01b03167f8c5be1e5ebec7d5bd14f71427d1e84f3dd0314c0f7b2291e5b200ac8c7c3b92560405160405180910390a45050565b600080610779836104f0565b9050806001600160a01b0316846001600160a01b031614806107c057506001600160a01b0380821660009081526005602090815260408083209388168352929052205460ff165b806107e45750836001600160a01b03166107d98461033a565b6001600160a01b0316145b949350505050565b826001600160a01b03166107ff826104f0565b6001600160a01b0316146108635760405162461bcd60e51b815260206004820152602560248201527f4552433732313a207472616e736665722066726f6d20696e636f72726563742060448201526437bbb732b960d91b60648201526084016103d5565b6001600160a01b0382166108c55760405162461bcd60e51b8152602060048201526024808201527f4552433732313a207472616e7366657220746f20746865207a65726f206164646044820152637265737360e01b60648201526084016103d5565b6108d06000826106ff565b6001600160a01b03831660009081526003602052604081208054600192906108f99084906111b4565b90915550506001600160a01b038216600090815260036020526040812080546001929061092790849061116d565b909155505060008181526002602052604080822080546001600160a01b0319166001600160a01b0386811691821790925591518493918716917fddf252ad1be2c89b69c2b068fc378daa952ba7f163c4a11628f55a4df523b3ef91a4505050565b6105f0828260405180602001604052806000815250610ba4565b816001600160a01b0316836001600160a01b031603610a035760405162461bcd60e51b815260206004820152601960248201527f4552433732313a20617070726f766520746f2063616c6c65720000000000000060448201526064016103d5565b6001600160a01b03838116600081815260056020908152604080832094871680845294825291829020805460ff191686151590811790915591519182527f17307eab39ab6107e8899845ad3d59bd9653f200f220920489ca2b5937696c31910160405180910390a3505050565b610a7b8484846107ec565b610a8784848484610bd7565b6106265760405162461bcd60e51b81526004016103d5906111cb565b606081600003610aca5750506040805180820190915260018152600360fc1b602082015290565b8160005b8115610af45780610ade8161121d565b9150610aed9050600a8361124c565b9150610ace565b60008167ffffffffffffffff811115610b0f57610b0f610faa565b6040519080825280601f01601f191660200182016040528015610b39576020820181803683370190505b5090505b84156107e457610b4e6001836111b4565b9150610b5b600a86611260565b610b6690603061116d565b60f81b818381518110610b7b57610b7b611274565b60200101906001600160f81b031916908160001a905350610b9d600a8661124c565b9450610b3d565b610bae8383610cd8565b610bbb6000848484610bd7565b6104765760405162461bcd60e51b81526004016103d5906111cb565b60006001600160a01b0384163b15610ccd57604051630a85bd0160e11b81526001600160a01b0385169063150b7a0290610c1b90339089908890889060040161128a565b6020604051808303816000875af1925050508015610c56575060408051601f3d908101601f19168201909252610c53918101906112c7565b60015b610cb3573d808015610c84576040519150601f19603f3d011682016040523d82523d6000602084013e610c89565b606091505b508051600003610cab5760405162461bcd60e51b81526004016103d5906111cb565b805181602001fd5b6001600160e01b031916630a85bd0160e11b1490506107e4565b506001949350505050565b6001600160a01b038216610d2e5760405162461bcd60e51b815260206004820181905260248201527f4552433732313a206d696e7420746f20746865207a65726f206164647265737360448201526064016103d5565b6000818152600260205260409020546001600160a01b031615610d935760405162461bcd60e51b815260206004820152601c60248201527f4552433732313a20746f6b656e20616c7265616479206d696e7465640000000060448201526064016103d5565b6001600160a01b0382166000908152600360205260408120805460019290610dbc90849061116d565b909155505060008181526002602052604080822080546001600160a01b0319166001600160a01b03861690811790915590518392907fddf252ad1be2c89b69c2b068fc378daa952ba7f163c4a11628f55a4df523b3ef908290a45050565b6001600160e01b0319811681146104d257600080fd5b600060208284031215610e4257600080fd5b813561069981610e1a565b60005b83811015610e68578181015183820152602001610e50565b838111156106265750506000910152565b60008151808452610e91816020860160208601610e4d565b601f01601f19169290920160200192915050565b6020815260006106996020830184610e79565b600060208284031215610eca57600080fd5b5035919050565b80356001600160a01b0381168114610ee857600080fd5b919050565b60008060408385031215610f0057600080fd5b610f0983610ed1565b946020939093013593505050565b600080600060608486031215610f2c57600080fd5b610f3584610ed1565b9250610f4360208501610ed1565b9150604084013590509250925092565b600060208284031215610f6557600080fd5b61069982610ed1565b60008060408385031215610f8157600080fd5b610f8a83610ed1565b915060208301358015158114610f9f57600080fd5b809150509250929050565b634e487b7160e01b600052604160045260246000fd5b60008060008060808587031215610fd657600080fd5b610fdf85610ed1565b9350610fed60208601610ed1565b925060408501359150606085013567ffffffffffffffff8082111561101157600080fd5b818701915087601f83011261102557600080fd5b81358181111561103757611037610faa565b604051601f8201601f19908116603f0116810190838211818310171561105f5761105f610faa565b816040528281528a602084870101111561107857600080fd5b82602086016020830137600060208483010152809550505050505092959194509250565b600080604083850312156110af57600080fd5b6110b883610ed1565b91506110c660208401610ed1565b90509250929050565b600181811c908216806110e357607f821691505b60208210810361110357634e487b7160e01b600052602260045260246000fd5b50919050565b6020808252602e908201527f4552433732313a2063616c6c6572206973206e6f7420746f6b656e206f776e6560408201526d1c881b9bdc88185c1c1c9bdd995960921b606082015260800190565b634e487b7160e01b600052601160045260246000fd5b6000821982111561118057611180611157565b500190565b60008351611197818460208801610e4d565b8351908301906111ab818360208801610e4d565b01949350505050565b6000828210156111c6576111c6611157565b500390565b60208082526032908201527f4552433732313a207472616e7366657220746f206e6f6e20455243373231526560408201527131b2b4bb32b91034b6b83632b6b2b73a32b960711b606082015260800190565b60006001820161122f5761122f611157565b5060010190565b634e487b7160e01b600052601260045260246000fd5b60008261125b5761125b611236565b500490565b60008261126f5761126f611236565b500690565b634e487b7160e01b600052603260045260246000fd5b6001600160a01b03858116825284166020820152604081018390526080606082018190526000906112bd90830184610e79565b9695505050505050565b6000602082840312156112d957600080fd5b815161069981610e1a56fea2646970667358221220e459270a9a1d7d15ec4cedac67bdd868a2e377ac486a9dad427ccffb0e8e14cb64736f6c634300080d0033",
  "linkReferences": {},
  "deployedLinkReferences": {}
}