{
  "_format": "hh-sol-artifact-1",
  "contractName": "TokenTransfer",
  "sourceName": "contracts/TokenTransfer.sol",
  "abi": [
    {
      "inputs": [],
      "stateMutability": "nonpayable",
      "type": "constructor"
    },
    {
      "inputs": [
        {
          "internalType": "address",
          "name": "token",
          "type": "address"
        }
      ],
      "name": "collectTaxERC20Tokens",
      "outputs": [],
      "stateMutability": "nonpayable",
      "type": "function"
    },
    {
      "inputs": [],
      "name": "collectTaxEther",
      "outputs": [],
      "stateMutability": "nonpayable",
      "type": "function"
    },
    {
      "inputs": [
        {
          "internalType": "address",
          "name": "",
          "type": "address"
        }
      ],
      "name": "owedERC20Taxes",
      "outputs": [
        {
          "internalType": "uint256",
          "name": "",
          "type": "uint256"
        }
      ],
      "stateMutability": "view",
      "type": "function"
    },
    {
      "inputs": [],
      "name": "owner",
      "outputs": [
        {
          "internalType": "address",
          "name": "",
          "type": "address"
        }
      ],
      "stateMutability": "view",
      "type": "function"
    },
    {
      "inputs": [
        {
          "internalType": "address",
          "name": "token",
          "type": "address"
        },
        {
          "internalType": "address",
          "name": "receiver",
          "type": "address"
        },
        {
          "internalType": "uint256",
          "name": "tokenAmount",
          "type": "uint256"
        }
      ],
      "name": "sendERC20Token",
      "outputs": [],
      "stateMutability": "nonpayable",
      "type": "function"
    },
    {
      "inputs": [
        {
          "internalType": "address",
          "name": "token",
          "type": "address"
        },
        {
          "internalType": "address[]",
          "name": "receivers",
          "type": "address[]"
        },
        {
          "internalType": "uint256[]",
          "name": "tokenAmounts",
          "type": "uint256[]"
        },
        {
          "internalType": "uint256",
          "name": "tokenTotalAmount",
          "type": "uint256"
        }
      ],
      "name": "sendERC20TokenGroup",
      "outputs": [],
      "stateMutability": "nonpayable",
      "type": "function"
    },
    {
      "inputs": [
        {
          "internalType": "address",
          "name": "receiver",
          "type": "address"
        }
      ],
      "name": "sendEther",
      "outputs": [],
      "stateMutability": "payable",
      "type": "function"
    },
    {
      "inputs": [
        {
          "internalType": "address[]",
          "name": "receivers",
          "type": "address[]"
        },
        {
          "internalType": "uint256[]",
          "name": "etherAmounts",
          "type": "uint256[]"
        }
      ],
      "name": "sendEtherGroup",
      "outputs": [],
      "stateMutability": "payable",
      "type": "function"
    }
  ],
  "bytecode": "0x608060405234801561001057600080fd5b50600180546001600160a01b03191633179055610f09806100326000396000f3fe60806040526004361061007b5760003560e01c806373d492441161004e57806373d49244146100fd5780638da5cb5b1461011d578063e8040cf714610155578063fbd996961461017557600080fd5b806308bce1a7146100805780630d010c4e146100c05780632edd5053146100d557806348c981e2146100ea575b600080fd5b34801561008c57600080fd5b506100ad61009b366004610bc9565b60006020819052908152604090205481565b6040519081526020015b60405180910390f35b6100d36100ce366004610c37565b610195565b005b3480156100e157600080fd5b506100d3610307565b6100d36100f8366004610bc9565b61044b565b34801561010957600080fd5b506100d3610118366004610ca3565b6104d4565b34801561012957600080fd5b5060015461013d906001600160a01b031681565b6040516001600160a01b0390911681526020016100b7565b34801561016157600080fd5b506100d3610170366004610bc9565b61054b565b34801561018157600080fd5b506100d3610190366004610cdf565b61069f565b8281146102255760405162461bcd60e51b815260206004820152604d60248201527f546f6b656e5472616e736665723a73656e64457468657247726f75703a20526560448201527f6365697665727320616e64206574686572416d6f756e7473206d75737420626560648201526c1039b0b6b2903632b733ba341760991b608482015260a4015b60405180910390fd5b8260005b818110156102ff57600086868381811061024557610245610d68565b905060200201602081019061025a9190610bc9565b6001600160a01b0316606486868581811061027757610277610d68565b90506020020135606361028a9190610d94565b6102949190610db3565b604051600081818185875af1925050503d80600081146102d0576040519150601f19603f3d011682016040523d82523d6000602084013e6102d5565b606091505b50509050806102f65760405162461bcd60e51b815260040161021c90610dd5565b50600101610229565b505050505050565b6001546001600160a01b03163314610389576040805162461bcd60e51b81526020600482015260248101919091527f546f6b656e5472616e736665723a636f6c6c65637454617845746865723a204360448201527f616c6c6572206d7573742062652074686520636f6e7472616374206f776e6572606482015260840161021c565b6001546040516000916001600160a01b03169047908381818185875af1925050503d80600081146103d6576040519150601f19603f3d011682016040523d82523d6000602084013e6103db565b606091505b50509050806104485760405162461bcd60e51b815260206004820152603360248201527f546f6b656e5472616e736665723a636f6c6c65637454617845746865723a204660448201527230b4b632b2103a379039b2b7321022ba3432b960691b606482015260840161021c565b50565b60006001600160a01b0382166064610464346063610d94565b61046e9190610db3565b604051600081818185875af1925050503d80600081146104aa576040519150601f19603f3d011682016040523d82523d6000602084013e6104af565b606091505b50509050806104d05760405162461bcd60e51b815260040161021c90610dd5565b5050565b6104e0833330846108da565b60646104ed826001610d94565b6104f79190610db3565b6001600160a01b0384166000908152602081905260408120805490919061051f908490610e22565b90915550610546905083836064610537856063610d94565b6105419190610db3565b610a48565b505050565b6001546001600160a01b031633146105da5760405162461bcd60e51b815260206004820152604660248201527f546f6b656e5472616e736665723a636f6c6c6563745461784552433230546f6b60448201527f656e733a2043616c6c6572206d7573742062652074686520636f6e74726163746064820152651037bbb732b960d11b608482015260a40161021c565b6001600160a01b0381166000908152602081905260409020546106755760405162461bcd60e51b815260206004820152604760248201527f546f6b656e5472616e736665723a4552433230546f6b656e733a204e6f20746f60448201527f6b656e73206f662074686973207479706520617265206f77656420746f207468606482015266329037bbb732b960c91b608482015260a40161021c565b6001546001600160a01b038083166000908152602081905260409020546104489284921690610a48565b83821461072f5760405162461bcd60e51b815260206004820152605260248201527f546f6b656e5472616e736665723a73656e644552433230546f6b656e47726f7560448201527f703a2052656365697665727320616e64206574686572416d6f756e7473206d7560648201527139ba1031329039b0b6b2903632b733ba341760711b608482015260a40161021c565b61073b863330846108da565b6000606461074a836001610d94565b6107549190610db3565b905080600080896001600160a01b03166001600160a01b03168152602001908152602001600020600082825461078a9190610e22565b9091555085905060005b818110156108335760648686838181106107b0576107b0610d68565b9050602002013560636107c39190610d94565b6107cd9190610db3565b6107d79085610e3a565b935061082b898989848181106107ef576107ef610d68565b90506020020160208101906108049190610bc9565b606489898681811061081857610818610d68565b9050602002013560636105379190610d94565b600101610794565b50818310156108d05760405162461bcd60e51b815260206004820152605760248201527f546f6b656e5472616e736665723a73656e644552433230546f6b656e47726f7560448201527f703a20416d6f756e74206f6620746f6b656e73207472616e736665726564206960648201527f732067726561746572207468616e20746178206f776564000000000000000000608482015260a40161021c565b5050505050505050565b600080856001600160a01b0316604051806060016040528060258152602001610eaf6025913980516020909101206040516001600160a01b038089166024830152871660448201526064810186905260840160408051601f198184030181529181526020820180516001600160e01b03166001600160e01b031990941693909317909252905161096a9190610e51565b6000604051808303816000865af19150503d80600081146109a7576040519150601f19603f3d011682016040523d82523d6000602084013e6109ac565b606091505b50915091508180156109d65750805115806109d65750808060200190518101906109d69190610e8c565b6102ff5760405162461bcd60e51b815260206004820152603960248201527f546f6b656e5472616e736665723a5f736166655472616e7366657246726f6d3a60448201527f205f736166655472616e7366657246726f6d206661696c656400000000000000606482015260840161021c565b604080518082018252601981527f7472616e7366657228616464726573732c75696e74323536290000000000000060209182015281516001600160a01b0385811660248301526044808301869052845180840390910181526064909201845291810180516001600160e01b031663a9059cbb60e01b17905291516000928392871691610ad49190610e51565b6000604051808303816000865af19150503d8060008114610b11576040519150601f19603f3d011682016040523d82523d6000602084013e610b16565b606091505b5091509150818015610b40575080511580610b40575080806020019051810190610b409190610e8c565b610ba65760405162461bcd60e51b815260206004820152603160248201527f546f6b656e5472616e736665723a5f736166655472616e736665723a205f73616044820152701999551c985b9cd9995c8819985a5b1959607a1b606482015260840161021c565b5050505050565b80356001600160a01b0381168114610bc457600080fd5b919050565b600060208284031215610bdb57600080fd5b610be482610bad565b9392505050565b60008083601f840112610bfd57600080fd5b50813567ffffffffffffffff811115610c1557600080fd5b6020830191508360208260051b8501011115610c3057600080fd5b9250929050565b60008060008060408587031215610c4d57600080fd5b843567ffffffffffffffff80821115610c6557600080fd5b610c7188838901610beb565b90965094506020870135915080821115610c8a57600080fd5b50610c9787828801610beb565b95989497509550505050565b600080600060608486031215610cb857600080fd5b610cc184610bad565b9250610ccf60208501610bad565b9150604084013590509250925092565b60008060008060008060808789031215610cf857600080fd5b610d0187610bad565b9550602087013567ffffffffffffffff80821115610d1e57600080fd5b610d2a8a838b01610beb565b90975095506040890135915080821115610d4357600080fd5b50610d5089828a01610beb565b979a9699509497949695606090950135949350505050565b634e487b7160e01b600052603260045260246000fd5b634e487b7160e01b600052601160045260246000fd5b6000816000190483118215151615610dae57610dae610d7e565b500290565b600082610dd057634e487b7160e01b600052601260045260246000fd5b500490565b6020808252602d908201527f546f6b656e5472616e736665723a73656e6445746865723a204661696c65642060408201526c3a379039b2b7321022ba3432b960991b606082015260800190565b60008219821115610e3557610e35610d7e565b500190565b600082821015610e4c57610e4c610d7e565b500390565b6000825160005b81811015610e725760208186018101518583015201610e58565b81811115610e81576000828501525b509190910192915050565b600060208284031215610e9e57600080fd5b81518015158114610be457600080fdfe7472616e7366657246726f6d28616464726573732c616464726573732c75696e7432353629a2646970667358221220e6cc8ff1c7899b1bf785ef72dfdb5bc1f91ee9fd9d76aa02275c228faee05e0264736f6c634300080d0033",
  "linkReferences": {},
  "deployedLinkReferences": {}
}