{
  "_format": "hh-sol-artifact-1",
  "contractName": "WETH",
  "sourceName": "contracts/WETH.sol",
  "abi": [
    {
      "anonymous": false,
      "inputs": [
        {
          "indexed": true,
          "internalType": "address",
          "name": "_owner",
          "type": "address"
        },
        {
          "indexed": true,
          "internalType": "address",
          "name": "_operator",
          "type": "address"
        },
        {
          "indexed": false,
          "internalType": "uint256",
          "name": "_value",
          "type": "uint256"
        }
      ],
      "name": "Approval",
      "type": "event"
    },
    {
      "anonymous": false,
      "inputs": [
        {
          "indexed": true,
          "internalType": "address",
          "name": "_receiver",
          "type": "address"
        },
        {
          "indexed": false,
          "internalType": "uint256",
          "name": "_value",
          "type": "uint256"
        }
      ],
      "name": "Deposit",
      "type": "event"
    },
    {
      "anonymous": false,
      "inputs": [
        {
          "indexed": true,
          "internalType": "address",
          "name": "_owner",
          "type": "address"
        },
        {
          "indexed": true,
          "internalType": "address",
          "name": "_receiver",
          "type": "address"
        },
        {
          "indexed": false,
          "internalType": "uint256",
          "name": "_value",
          "type": "uint256"
        }
      ],
      "name": "Transfer",
      "type": "event"
    },
    {
      "anonymous": false,
      "inputs": [
        {
          "indexed": true,
          "internalType": "address",
          "name": "_owner",
          "type": "address"
        },
        {
          "indexed": false,
          "internalType": "uint256",
          "name": "_value",
          "type": "uint256"
        }
      ],
      "name": "Withdrawal",
      "type": "event"
    },
    {
      "inputs": [
        {
          "internalType": "address",
          "name": "",
          "type": "address"
        },
        {
          "internalType": "address",
          "name": "",
          "type": "address"
        }
      ],
      "name": "allowance",
      "outputs": [
        {
          "internalType": "uint256",
          "name": "",
          "type": "uint256"
        }
      ],
      "stateMutability": "view",
      "type": "function"
    },
    {
      "inputs": [
        {
          "internalType": "address",
          "name": "_operator",
          "type": "address"
        },
        {
          "internalType": "uint256",
          "name": "_value",
          "type": "uint256"
        }
      ],
      "name": "approve",
      "outputs": [
        {
          "internalType": "bool",
          "name": "",
          "type": "bool"
        }
      ],
      "stateMutability": "nonpayable",
      "type": "function"
    },
    {
      "inputs": [
        {
          "internalType": "address",
          "name": "",
          "type": "address"
        }
      ],
      "name": "balanceOf",
      "outputs": [
        {
          "internalType": "uint256",
          "name": "",
          "type": "uint256"
        }
      ],
      "stateMutability": "view",
      "type": "function"
    },
    {
      "inputs": [],
      "name": "decimals",
      "outputs": [
        {
          "internalType": "uint8",
          "name": "",
          "type": "uint8"
        }
      ],
      "stateMutability": "view",
      "type": "function"
    },
    {
      "inputs": [],
      "name": "deposit",
      "outputs": [],
      "stateMutability": "payable",
      "type": "function"
    },
    {
      "inputs": [],
      "name": "getWETH",
      "outputs": [],
      "stateMutability": "nonpayable",
      "type": "function"
    },
    {
      "inputs": [],
      "name": "name",
      "outputs": [
        {
          "internalType": "string",
          "name": "",
          "type": "string"
        }
      ],
      "stateMutability": "view",
      "type": "function"
    },
    {
      "inputs": [],
      "name": "symbol",
      "outputs": [
        {
          "internalType": "string",
          "name": "",
          "type": "string"
        }
      ],
      "stateMutability": "view",
      "type": "function"
    },
    {
      "inputs": [],
      "name": "totalSupply",
      "outputs": [
        {
          "internalType": "uint256",
          "name": "",
          "type": "uint256"
        }
      ],
      "stateMutability": "view",
      "type": "function"
    },
    {
      "inputs": [
        {
          "internalType": "address",
          "name": "_dst",
          "type": "address"
        },
        {
          "internalType": "uint256",
          "name": "_value",
          "type": "uint256"
        }
      ],
      "name": "transfer",
      "outputs": [
        {
          "internalType": "bool",
          "name": "",
          "type": "bool"
        }
      ],
      "stateMutability": "nonpayable",
      "type": "function"
    },
    {
      "inputs": [
        {
          "internalType": "address",
          "name": "_owner",
          "type": "address"
        },
        {
          "internalType": "address",
          "name": "_receiver",
          "type": "address"
        },
        {
          "internalType": "uint256",
          "name": "_value",
          "type": "uint256"
        }
      ],
      "name": "transferFrom",
      "outputs": [
        {
          "internalType": "bool",
          "name": "",
          "type": "bool"
        }
      ],
      "stateMutability": "nonpayable",
      "type": "function"
    },
    {
      "inputs": [
        {
          "internalType": "uint256",
          "name": "_value",
          "type": "uint256"
        }
      ],
      "name": "withdraw",
      "outputs": [],
      "stateMutability": "nonpayable",
      "type": "function"
    },
    {
      "stateMutability": "payable",
      "type": "receive"
    }
  ],
  "bytecode": "0x60c0604052600b60808190526a0aee4c2e0e0cac8408aa8960ab1b60a090815261002c9160009190610078565b50604080518082019091526004808252630ae8aa8960e31b602090920191825261005891600191610078565b506002805460ff1916601217905534801561007257600080fd5b5061014b565b82805461008490610111565b90600052602060002090601f0160209004810192826100a657600085556100ec565b82601f106100bf57805160ff19168380011785556100ec565b828001600101855582156100ec579182015b828111156100ec5782518255916020019190600101906100d1565b506100f89291506100fc565b5090565b5b808211156100f857600081556001016100fd565b600181811c9082168061012557607f821691505b60208210810361014557634e487b7160e01b600052602260045260246000fd5b50919050565b61081b8061015a6000396000f3fe6080604052600436106100ab5760003560e01c806370a082311161006457806370a08231146101a357806395d89b41146101d0578063a9059cbb146101e5578063cae5f11e14610205578063d0e30db01461021a578063dd62ed3e1461022257600080fd5b806306fdde03146100bf578063095ea7b3146100ea57806318160ddd1461011a57806323b872dd146101375780632e1a7d4d14610157578063313ce5671461017757600080fd5b366100ba576100b861025a565b005b600080fd5b3480156100cb57600080fd5b506100d46102b5565b6040516100e19190610628565b60405180910390f35b3480156100f657600080fd5b5061010a610105366004610699565b610343565b60405190151581526020016100e1565b34801561012657600080fd5b50475b6040519081526020016100e1565b34801561014357600080fd5b5061010a6101523660046106c3565b6103af565b34801561016357600080fd5b506100b86101723660046106ff565b610533565b34801561018357600080fd5b506002546101919060ff1681565b60405160ff90911681526020016100e1565b3480156101af57600080fd5b506101296101be366004610718565b60036020526000908152604090205481565b3480156101dc57600080fd5b506100d46105d9565b3480156101f157600080fd5b5061010a610200366004610699565b6105e6565b34801561021157600080fd5b506100b86105fa565b6100b861025a565b34801561022e57600080fd5b5061012961023d366004610733565b600460209081526000928352604080842090915290825290205481565b336000908152600360205260408120805434929061027990849061077c565b909155505060405134815233907fe1fffcc4923d04b559f4d29a8bfc6cda04eb5b0d3c460751c2402c5c5cc9109c9060200160405180910390a2565b600080546102c290610794565b80601f01602080910402602001604051908101604052809291908181526020018280546102ee90610794565b801561033b5780601f106103105761010080835404028352916020019161033b565b820191906000526020600020905b81548152906001019060200180831161031e57829003601f168201915b505050505081565b3360008181526004602090815260408083206001600160a01b038716808552925280832085905551919290917f8c5be1e5ebec7d5bd14f71427d1e84f3dd0314c0f7b2291e5b200ac8c7c3b9259061039e9086815260200190565b60405180910390a350600192915050565b6001600160a01b0383166000908152600360205260408120548211156103d457600080fd5b6001600160a01b038416331480159061041257506001600160a01b038416600090815260046020908152604080832033845290915290205460001914155b15610480576001600160a01b038416600090815260046020908152604080832033845290915290205482111561044757600080fd5b6001600160a01b03841660009081526004602090815260408083203384529091528120805484929061047a9084906107ce565b90915550505b6001600160a01b038416600090815260036020526040812080548492906104a89084906107ce565b90915550506001600160a01b038316600090815260036020526040812080548492906104d590849061077c565b92505081905550826001600160a01b0316846001600160a01b03167fddf252ad1be2c89b69c2b068fc378daa952ba7f163c4a11628f55a4df523b3ef8460405161052191815260200190565b60405180910390a35060019392505050565b3360009081526003602052604090205481111561054f57600080fd5b336000908152600360205260408120805483929061056e9084906107ce565b9091555050604051339082156108fc029083906000818181858888f193505050501580156105a0573d6000803e3d6000fd5b5060405181815233907f7fcf532c15f0a6db0bd6d0e038bea71d30d808c7d98cb3bf7268a95bf5081b659060200160405180910390a250565b600180546102c290610794565b60006105f33384846103af565b9392505050565b3360009081526003602052604081208054678ac7230489e80000929061062190849061077c565b9091555050565b600060208083528351808285015260005b8181101561065557858101830151858201604001528201610639565b81811115610667576000604083870101525b50601f01601f1916929092016040019392505050565b80356001600160a01b038116811461069457600080fd5b919050565b600080604083850312156106ac57600080fd5b6106b58361067d565b946020939093013593505050565b6000806000606084860312156106d857600080fd5b6106e18461067d565b92506106ef6020850161067d565b9150604084013590509250925092565b60006020828403121561071157600080fd5b5035919050565b60006020828403121561072a57600080fd5b6105f38261067d565b6000806040838503121561074657600080fd5b61074f8361067d565b915061075d6020840161067d565b90509250929050565b634e487b7160e01b600052601160045260246000fd5b6000821982111561078f5761078f610766565b500190565b600181811c908216806107a857607f821691505b6020821081036107c857634e487b7160e01b600052602260045260246000fd5b50919050565b6000828210156107e0576107e0610766565b50039056fea2646970667358221220fa8c3a74c6e583652bc1c752e650c39fd6634dcfe5e719664e88279b39decbfb64736f6c634300080d0033",
  "linkReferences": {},
  "deployedLinkReferences": {}
}