{
  "_format": "hh-sol-artifact-1",
  "contractName": "WETH",
  "sourceName": "contracts/WETH.sol",
  "abi": [
    {
      "anonymous": false,
      "inputs": [
        {
          "indexed": true,
          "internalType": "address",
          "name": "_owner",
          "type": "address"
        },
        {
          "indexed": true,
          "internalType": "address",
          "name": "_operator",
          "type": "address"
        },
        {
          "indexed": false,
          "internalType": "uint256",
          "name": "_value",
          "type": "uint256"
        }
      ],
      "name": "Approval",
      "type": "event"
    },
    {
      "anonymous": false,
      "inputs": [
        {
          "indexed": true,
          "internalType": "address",
          "name": "_receiver",
          "type": "address"
        },
        {
          "indexed": false,
          "internalType": "uint256",
          "name": "_value",
          "type": "uint256"
        }
      ],
      "name": "Deposit",
      "type": "event"
    },
    {
      "anonymous": false,
      "inputs": [
        {
          "indexed": true,
          "internalType": "address",
          "name": "_owner",
          "type": "address"
        },
        {
          "indexed": true,
          "internalType": "address",
          "name": "_receiver",
          "type": "address"
        },
        {
          "indexed": false,
          "internalType": "uint256",
          "name": "_value",
          "type": "uint256"
        }
      ],
      "name": "Transfer",
      "type": "event"
    },
    {
      "anonymous": false,
      "inputs": [
        {
          "indexed": true,
          "internalType": "address",
          "name": "_owner",
          "type": "address"
        },
        {
          "indexed": false,
          "internalType": "uint256",
          "name": "_value",
          "type": "uint256"
        }
      ],
      "name": "Withdrawal",
      "type": "event"
    },
    {
      "inputs": [
        {
          "internalType": "address",
          "name": "",
          "type": "address"
        },
        {
          "internalType": "address",
          "name": "",
          "type": "address"
        }
      ],
      "name": "allowance",
      "outputs": [
        {
          "internalType": "uint256",
          "name": "",
          "type": "uint256"
        }
      ],
      "stateMutability": "view",
      "type": "function"
    },
    {
      "inputs": [
        {
          "internalType": "address",
          "name": "_operator",
          "type": "address"
        },
        {
          "internalType": "uint256",
          "name": "_value",
          "type": "uint256"
        }
      ],
      "name": "approve",
      "outputs": [
        {
          "internalType": "bool",
          "name": "",
          "type": "bool"
        }
      ],
      "stateMutability": "nonpayable",
      "type": "function"
    },
    {
      "inputs": [
        {
          "internalType": "address",
          "name": "",
          "type": "address"
        }
      ],
      "name": "balanceOf",
      "outputs": [
        {
          "internalType": "uint256",
          "name": "",
          "type": "uint256"
        }
      ],
      "stateMutability": "view",
      "type": "function"
    },
    {
      "inputs": [],
      "name": "decimals",
      "outputs": [
        {
          "internalType": "uint8",
          "name": "",
          "type": "uint8"
        }
      ],
      "stateMutability": "view",
      "type": "function"
    },
    {
      "inputs": [],
      "name": "deposit",
      "outputs": [],
      "stateMutability": "payable",
      "type": "function"
    },
    {
      "inputs": [],
      "name": "getWETH",
      "outputs": [],
      "stateMutability": "nonpayable",
      "type": "function"
    },
    {
      "inputs": [],
      "name": "name",
      "outputs": [
        {
          "internalType": "string",
          "name": "",
          "type": "string"
        }
      ],
      "stateMutability": "view",
      "type": "function"
    },
    {
      "inputs": [],
      "name": "symbol",
      "outputs": [
        {
          "internalType": "string",
          "name": "",
          "type": "string"
        }
      ],
      "stateMutability": "view",
      "type": "function"
    },
    {
      "inputs": [],
      "name": "totalSupply",
      "outputs": [
        {
          "internalType": "uint256",
          "name": "",
          "type": "uint256"
        }
      ],
      "stateMutability": "view",
      "type": "function"
    },
    {
      "inputs": [
        {
          "internalType": "address",
          "name": "_dst",
          "type": "address"
        },
        {
          "internalType": "uint256",
          "name": "_value",
          "type": "uint256"
        }
      ],
      "name": "transfer",
      "outputs": [
        {
          "internalType": "bool",
          "name": "",
          "type": "bool"
        }
      ],
      "stateMutability": "nonpayable",
      "type": "function"
    },
    {
      "inputs": [
        {
          "internalType": "address",
          "name": "_owner",
          "type": "address"
        },
        {
          "internalType": "address",
          "name": "_receiver",
          "type": "address"
        },
        {
          "internalType": "uint256",
          "name": "_value",
          "type": "uint256"
        }
      ],
      "name": "transferFrom",
      "outputs": [
        {
          "internalType": "bool",
          "name": "",
          "type": "bool"
        }
      ],
      "stateMutability": "nonpayable",
      "type": "function"
    },
    {
      "inputs": [
        {
          "internalType": "uint256",
          "name": "_value",
          "type": "uint256"
        }
      ],
      "name": "withdraw",
      "outputs": [],
      "stateMutability": "nonpayable",
      "type": "function"
    },
    {
      "stateMutability": "payable",
      "type": "receive"
    }
  ],
  "bytecode": "0x60c0604052600b60808190526a0aee4c2e0e0cac8408aa8960ab1b60a090815261002c9160009190610078565b50604080518082019091526004808252630ae8aa8960e31b602090920191825261005891600191610078565b506002805460ff1916601217905534801561007257600080fd5b5061014b565b82805461008490610111565b90600052602060002090601f0160209004810192826100a657600085556100ec565b82601f106100bf57805160ff19168380011785556100ec565b828001600101855582156100ec579182015b828111156100ec5782518255916020019190600101906100d1565b506100f89291506100fc565b5090565b5b808211156100f857600081556001016100fd565b600181811c9082168061012557607f821691505b60208210810361014557634e487b7160e01b600052602260045260246000fd5b50919050565b6108048061015a6000396000f3fe6080604052600436106100ab5760003560e01c806370a082311161006457806370a08231146101a357806395d89b41146101d0578063a9059cbb146101e5578063cae5f11e14610205578063d0e30db014610231578063dd62ed3e1461023957600080fd5b806306fdde03146100bf578063095ea7b3146100ea57806318160ddd1461011a57806323b872dd146101375780632e1a7d4d14610157578063313ce5671461017757600080fd5b366100ba576100b8610271565b005b600080fd5b3480156100cb57600080fd5b506100d46102cc565b6040516100e19190610611565b60405180910390f35b3480156100f657600080fd5b5061010a610105366004610682565b61035a565b60405190151581526020016100e1565b34801561012657600080fd5b50475b6040519081526020016100e1565b34801561014357600080fd5b5061010a6101523660046106ac565b6103c6565b34801561016357600080fd5b506100b86101723660046106e8565b61054a565b34801561018357600080fd5b506002546101919060ff1681565b60405160ff90911681526020016100e1565b3480156101af57600080fd5b506101296101be366004610701565b60036020526000908152604090205481565b3480156101dc57600080fd5b506100d46105f0565b3480156101f157600080fd5b5061010a610200366004610682565b6105fd565b34801561021157600080fd5b506100b8336000908152600360205260409020670de0b6b3a76400009055565b6100b8610271565b34801561024557600080fd5b5061012961025436600461071c565b600460209081526000928352604080842090915290825290205481565b3360009081526003602052604081208054349290610290908490610765565b909155505060405134815233907fe1fffcc4923d04b559f4d29a8bfc6cda04eb5b0d3c460751c2402c5c5cc9109c9060200160405180910390a2565b600080546102d99061077d565b80601f01602080910402602001604051908101604052809291908181526020018280546103059061077d565b80156103525780601f1061032757610100808354040283529160200191610352565b820191906000526020600020905b81548152906001019060200180831161033557829003601f168201915b505050505081565b3360008181526004602090815260408083206001600160a01b038716808552925280832085905551919290917f8c5be1e5ebec7d5bd14f71427d1e84f3dd0314c0f7b2291e5b200ac8c7c3b925906103b59086815260200190565b60405180910390a350600192915050565b6001600160a01b0383166000908152600360205260408120548211156103eb57600080fd5b6001600160a01b038416331480159061042957506001600160a01b038416600090815260046020908152604080832033845290915290205460001914155b15610497576001600160a01b038416600090815260046020908152604080832033845290915290205482111561045e57600080fd5b6001600160a01b0384166000908152600460209081526040808320338452909152812080548492906104919084906107b7565b90915550505b6001600160a01b038416600090815260036020526040812080548492906104bf9084906107b7565b90915550506001600160a01b038316600090815260036020526040812080548492906104ec908490610765565b92505081905550826001600160a01b0316846001600160a01b03167fddf252ad1be2c89b69c2b068fc378daa952ba7f163c4a11628f55a4df523b3ef8460405161053891815260200190565b60405180910390a35060019392505050565b3360009081526003602052604090205481111561056657600080fd5b33600090815260036020526040812080548392906105859084906107b7565b9091555050604051339082156108fc029083906000818181858888f193505050501580156105b7573d6000803e3d6000fd5b5060405181815233907f7fcf532c15f0a6db0bd6d0e038bea71d30d808c7d98cb3bf7268a95bf5081b659060200160405180910390a250565b600180546102d99061077d565b600061060a3384846103c6565b9392505050565b600060208083528351808285015260005b8181101561063e57858101830151858201604001528201610622565b81811115610650576000604083870101525b50601f01601f1916929092016040019392505050565b80356001600160a01b038116811461067d57600080fd5b919050565b6000806040838503121561069557600080fd5b61069e83610666565b946020939093013593505050565b6000806000606084860312156106c157600080fd5b6106ca84610666565b92506106d860208501610666565b9150604084013590509250925092565b6000602082840312156106fa57600080fd5b5035919050565b60006020828403121561071357600080fd5b61060a82610666565b6000806040838503121561072f57600080fd5b61073883610666565b915061074660208401610666565b90509250929050565b634e487b7160e01b600052601160045260246000fd5b600082198211156107785761077861074f565b500190565b600181811c9082168061079157607f821691505b6020821081036107b157634e487b7160e01b600052602260045260246000fd5b50919050565b6000828210156107c9576107c961074f565b50039056fea2646970667358221220ff54753113aec3e62622613a0ebe7a2a15379cf20ac6e2d670e8777e2d61eec764736f6c634300080d0033",
  "linkReferences": {},
  "deployedLinkReferences": {}
}